:020000040800F2
:10000000002000209529000825090008270900087C
:1000100000000000000000000000000000000000E0
:100020000000000000000000000000002909000896
:1000300000000000000000002B0900082D09000846
:10004000E529000800000000E5290008E52900086E
:10005000E5290008E5290008E5290008E529000848
:100060000000000035090008E5290008E52900081E
:1000700045090008E5290008E529000800000000FE
:10008000E52900080000000000000000E529000844
:1000900000000000E5290008E5290008E52900081E
:1000A000E5290008E5290008E5290008E5290008F8
:0800B000E52900080000000032
:1000B80003B47146490840004900095E49008E446E
:1000C80003BC7047002243088B4274D303098B4258
:1000D8005FD3030A8B4244D3030B8B4228D3030C10
:1000E8008B420DD3FF22090212BA030C8B4202D3B2
:1000F8001212090265D0030B8B4219D300E0090ADA
:10010800C30B8B4201D3CB03C01A5241830B8B42E2
:1001180001D38B03C01A5241430B8B4201D34B03CB
:10012800C01A5241030B8B4201D30B03C01A524130
:10013800C30A8B4201D3CB02C01A5241830A8B42B5
:1001480001D38B02C01A5241430A8B4201D34B029E
:10015800C01A5241030A8B4201D30B02C01A524102
:10016800CDD2C3098B4201D3CB01C01A52418309B6
:100178008B4201D38B01C01A524143098B4201D3F0
:100188004B01C01A524103098B4201D30B01C01A1B
:100198005241C3088B4201D3CB00C01A5241830895
:1001A8008B4201D38B00C01A524143088B4201D3C2
:1001B8004B00C01A5241411A00D201465241104622
:1001C8007047FFE701B5002000F0F0F802BDC04617
:1001D8000029F7D076E7704703460B437FD4002207
:1001E80043088B4274D303098B425FD3030A8B42C3
:1001F80044D3030B8B4228D3030C8B420DD3FF222D
:10020800090212BA030C8B4202D31212090265D0FA
:10021800030B8B4219D300E0090AC30B8B4201D3AD
:10022800CB03C01A5241830B8B4201D38B03C01AF4
:100238005241430B8B4201D34B03C01A5241030B6B
:100248008B4201D30B03C01A5241C30A8B4201D31C
:10025800CB02C01A5241830A8B4201D38B02C01AC7
:100268005241430A8B4201D34B02C01A5241030A3E
:100278008B4201D30B02C01A5241CDD2C3098B4223
:1002880001D3CB01C01A524183098B4201D38B01A0
:10029800C01A524143098B4201D34B01C01A524143
:1002A80003098B4201D30B01C01A5241C3088B4288
:1002B80001D3CB00C01A524183088B4201D38B0073
:1002C800C01A524143088B4201D34B00C01A524115
:1002D800411A00D201465241104670475DE0CA0FEC
:1002E80000D04942031000D34042534000229C46AC
:1002F80003098B422DD3030A8B4212D3FC228901B6
:1003080012BA030A8B420CD3890192118B4208D38B
:10031800890192118B4204D389013AD0921100E0ED
:100328008909C3098B4201D3CB01C01A5241830901
:100338008B4201D38B01C01A524143098B4201D32E
:100348004B01C01A524103098B4201D30B01C01A59
:100358005241C3088B4201D3CB00C01A52418308D3
:100368008B4201D38B00C01A5241D9D243088B4229
:1003780001D34B00C01A5241411A00D201466346CC
:1003880052415B10104601D34042002B00D5494230
:10039800704763465B1000D3404201B5002000F06F
:1003A80005F802BD0029F8D016E770477047C04627
:1003B8008446100062468C461900634600E0C04639
:1003C8001FB504F031FC002801D40021C8421FBD2C
:1003D80010B504F071FB4042013010BD10B504F0B7
:1003E80023FC002801DB002010BD012010BDC04601
:1003F80010B504F019FC002801DD002010BD012013
:1004080010BDC04610B504F09BFB002801DC00209D
:1004180010BD012010BDC04610B504F091FB0028A6
:1004280001DA002010BD012010BDC0461C210123A7
:100438001B04984201D3000C10391B0A984201D3BF
:10044800000A08391B09984201D30009043902A29D
:10045800105C40187047C046040302020101010104
:1004680000000000000000000448054B10B583425E
:1004780003D0044B002B00D0984710BD6800002023
:10048800680000200000000006480749091A8B1080
:10049800C90FC91810B5491003D0044B002B00D060
:1004A800984710BD68000020680000200000000088
:1004B80010B5074C2378002B09D1FFF7D5FF054B62
:1004C800002B02D0044800E000BF0123237010BDB8
:1004D8006800002000000000144D0008054B10B50E
:1004E800002B03D00449054800E000BFFFF7CCFF0C
:1004F80010BDC046000000006C000020144D00082C
:1005080010B50A490A4B986802F02CFA002807D15E
:10051800074B9A68074B9968074802F0A5FC10BD7D
:1005280080218901054801F061FCF1E78C00002079
:1005380094000020840000202C4D00080008005082
:1005480072B6FEE700B593B03422002105A802F088
:10055800E7FC1022002101A802F0E2FC80208000C4
:1005680001F0ACFD0123059380235B02069302236F
:100578000C9301330D9300230E9310330F938023B4
:100588009B02109380239B05119305A800F022FF7E
:1005980000280ED107230193053B02930023039300
:1005A8000493022101A801F0C3F9002803D113B074
:1005B80000BDFFF7C5FFFFF7C3FF000010B501F04E
:1005C80033FEFFF7BFFF00F015F800F007F900F061
:1005D80049F800F01BF9054C200000F051FE0449D1
:1005E8000422200000F0A4FDFEE7C0460001002020
:1005F8009400002070B588B01422002103A802F0EE
:100608008FFC164B596B042211435963596B0A40EE
:100618000092009A596B202211435963596B0A4082
:100628000192019A5A6B012422435A635B6B23405F
:100638000293029B8026B601094D01223100280051
:1006480001F0CEFB0396049400230593069303A9B7
:10065800280001F00BFB08B070BDC0460010024036
:100668000008005000B585B00C22002101A802F056
:1006780057FC2948294B03608023DB05436000238E
:100688008360C360802212060261042242610376FD
:100698004376033A8276C261436283622C214254D4
:1006A80003630532426336328354C36400F066F94B
:1006B800002822D1012301930293174801A900F0D1
:1006C80081FB00281CD1164B0193134801A900F0A7
:1006D80079FB002817D1134B01930F4801A900F0AB
:1006E80071FB002812D1104B01930B4801A900F0AF
:1006F80069FB00280DD105B000BDFFF721FFD9E740
:10070800FFF71EFFDFE7FFF71BFFE4E7FFF718FF20
:10071800E9E7FFF715FFEEE700010020002401409C
:100728000200000404000008001000B010B588B0F2
:1007380004001422002103A802F0F2FB2268234BD4
:100748009A4201D008B010BD214B1A6C8021490390
:100758000A431A641A6C0A400192019A596B0122E1
:10076800114359635B6B1A400292029B0723039360
:10077800043B0493A02003A9C00501F077FA1548AB
:10078800154B03600523436000238360C360802208
:1007980002618132FF32426180221201826120228D
:1007A800C261036201F07EFB00280BD1094B23656F
:1007B8009C62002200210C2001F0F6FC0C2001F0C4
:1007C800F7FCBFE7FFF7BCFEF0E7C0460024014096
:1007D80000100240A40000200800024000B583B0C9
:1007E800094A916B012319439163926B134001935A
:1007F800019B00220021092001F0D6FC092001F00C
:10080800D7FC03B000BDC0460010024010B519481F
:10081800194B0360194B436000238360C360036175
:100828000C2242618361C36103624362836201F007
:1008380089FF002811D10F48002102F003F8002891
:100848000ED10C48002102F023F800280BD10948EA
:1008580001F0D8FF002809D110BDFFF771FEEAE7C3
:10086800FFF76EFEEDE7FFF76BFEF0E7FFF768FEB8
:10087800F2E7C046640100200038014000941100EE
:1008880010B58EB004001422002109A802F048FB1C
:100898001822002103A802F043FB2268174B9A4252
:1008A80001D00EB010BD0123039303A801F020F975
:1008B800002820D1124B1A6C8021C9010A431A64FE
:1008C8001A6C0A400192019A596B0122114359632B
:1008D8005B6B13400293029BC023DB000993022346
:1008E8000A9300230B930C930D92A02009A9C0052D
:1008F80001F0BCF9D5E7FFF723FEDBE7003801403C
:100908000010024010B51400012392B202485B4265
:1009180001F066FE200010BD64010020FEE7FEE73E
:100928007047704710B501F093FC10BD10B5024830
:1009380001F05EFB10BDC046A400002010B50248BF
:1009480000F094F910BDC0460001002082B00A4BA7
:10095800196C012211431964196C0A400092009A1B
:10096800DA6B802149050A43DA63DB6B0B4001939C
:10097800019B02B07047C0460010024030B583B0FA
:10098800040000230193002800D106E1836D002BA9
:1009980013D023689A68D2001CD49968804A114001
:1009A800802252050A439A607E4B18687E49FFF7F9
:1009B80089FB01304000019009E0FFF7B7FE0023F2
:1009C800E3655422A354E4E7019B013B0193019B97
:1009D800002BF9D123689A68D20000D59DE0A26D5A
:1009E80010210A43A265E26D0F390A43E26501202E
:1009F8009A6804210D001540114200D00125A26D0E
:100A0800D20600D5C2E0002D00D0BFE0A26D674934
:100A18000A400631FF310A43A2659A68D20752D4C8
:100A2800A268217E89030A43617EC9030A43A57E21
:100A380069030A43216B002901D0802149010A4337
:100A4800E1680A432169002969DB802189030A4397
:100A58002C21615C49000A432021615C012961D095
:100A6800616A002905D0E0256D002940A56A29435F
:100A78000A43D9684E4D29400A43DA6063689B0FE0
:100A88009B07E26C1A433C21615C012959D021681B
:100A98000B69484D2B4013430B616368C022120653
:100AA800934210D08022D20593420CD080221206A5
:100AB800934208D040490A68404D2A40F025AD03CA
:100AC8002B4013430B602168636B4A690725AA43CF
:100AD80013434B612168A26B4B696935AB43120123
:100AE80013434B612369002B35D12268916A103B6F
:100AF8000B43936223685A6907231340626B9A4237
:100B08003BD0A36D12229343023A1343A365E36DCE
:100B18000F3A1343E36501203DE0002068E74900F0
:100B2800490894E7002D03D1802149020A4397E739
:100B3800A16D20252943A165E16D1F3D2943E1658C
:100B48008EE7216C0B43616C0B43A16C0B43134381
:100B580001221A439BE7802292039342CAD121685B
:100B68008B6AE369013B9B001C221A4010235B42FD
:100B78009340226E13438B62BCE70023E365A36DA9
:100B880003229343023A1343A36504E0A36D1022A2
:100B98001343A365012003B030BD0120FBE7C04625
:100BA800E8FFFF6F08000020400D0300FDFEFFFF77
:100BB8000102FEFF02FCFF1F08270140FFFFC3FFE1
:100BC800704710B5806AFFF7FBFF10BD704770478C
:100BD80010B5806A836D402213438365C36D3C3A28
:100BE8001343C365FFF7F3FF10BD000010B5030002
:100BF800806A826D502111422AD1826D80239B0028
:100C0800134383650368D968C0221201114213D1C6
:100C1800827E002A10D11A6812070DD59A685207E9
:100C28000DD45A680C218A435A60836D0E4A1340CA
:100C38000432FF3213438365FFF762FC10BD836DF6
:100C4800202213438365C36D1F3A1343C365F3E73B
:100C5800826DD20604D4026D526B18009047EDE7FE
:100C6800FFF7B5FFEAE7C046FEFEFFFF70B50400D8
:100C780003681D685E68AB070FD5B3070DD5836D94
:100C8800DB0604D4826D80231B0113438365200097
:100C980000F09EFB236802221A606B0701D57307D8
:100CA80003D42B0729D5330727D5A36DDB0604D436
:100CB800A26D80239B001343A3652368D968C022D3
:100CC8001201114213D1A27E002A10D11A6812070C
:100CD8000DD59A6852073BD45A680C218A435A604A
:100CE800A36D374A13400432FF321343A365200033
:100CF800FFF706FC23680C221A602B0601D5330681
:100D08002FD4EB0501D5F30537D4AB0501D5B305D1
:100D180040D4EB0617D5F30615D5236B002B03D06B
:100D28002368DB689B070BD0A26D8023DB0013438D
:100D3800A365E36D02221343E3652000FFF747FF35
:100D4800236810221A60AD0401D5B6042FD470BDF3
:100D5800A36D20221343A365E36D1F3A1343E36594
:100D6800C5E7A26D80235B021343A3652000FFF74C
:100D78002DFF236880221A60C3E7A26D80239B029F
:100D88001343A365200000F021FB23688022520052
:100D98001A60BAE7A26D8023DB021343A365200023
:100DA80000F015FB2368802292001A60B1E720004A
:100DB80000F00FFB2368802292011A60C7E7C04643
:100DC800FEFEFFFFF0B583B0040000230193056920
:100DD8005433C35C012B00D12FE154230122C254A8
:100DE80000688368033216001E401A4209D0A36DBA
:100DF8001C321343A365012054230022E25403B09C
:100E0800F0BD4B68022B00D1D5E080221206954236
:100E180025D08B4A954222D0226E1F271F400F25CE
:100E2800BD40AA430B685D032FD19B0E1F261E40B1
:100E3800BE40324322664D68AB080133E2699342F3
:100E480013D80E68826A1F231D40103B1F00AF4055
:100E5800BA43B60E3340AB401343836205E00B68D8
:100E6800826A5B035B0B1343836220680B688D689F
:100E780042691B029A432B40724D2B401343436136
:100E88000B68002B4FDB0020B6E7DD07D0D49D07A9
:100E980027D45D0727D41D0727D4DD0627D49D0650
:100EA80027D45D0627D41D0627D4DD0527D49D0544
:100EB80027D45D0527D41D0527D4DD0427D49D0438
:100EC80027D45D0427D41D0427D4DD0327D49D032C
:100ED80027D48025ED021E002E402B42A8D01226D2
:100EE800A6E70126A4E70226A2E70326A0E7042630
:100EF8009EE705269CE706269AE7072698E7082630
:100F080096E7092694E70A2692E70B2690E70C262F
:100F18008EE70D268CE70E268AE70F2688E710262F
:100F280086E7112684E7484A1168E02252040A40FD
:100F38004648834207D04648834222D045488342E8
:100F48002CD0002058E70802F5D480231B04134353
:100F58003D490A684048024013430B603F4B1868FC
:100F68003F49FFF7AFF8013043001B189B0001937E
:100F780002E0019B013B0193019B002BF9D100206A
:100F88003AE7C801DAD480235B0413432E490A6880
:100F98003148024013430B6000202DE749024AD430
:100FA8008023DB03134328490A682B480240134374
:100FB8000B60002020E780231B069D4202D0204BB7
:100FC8009D4205D10B68826A5B035B0B9A43826280
:100FD8000B68002B01DB00200EE71B4A12681B4937
:100FE8008B4207D01A498B420FD01A498B4217D02F
:100FF800002001E7A0235B041A4013490B68164838
:1010080003401A430A600020F6E6C0231B041A4076
:101018000D490B68104803401A430A600020EBE6AC
:10102800C0235B041A4008490B680B4803401A4365
:101038000A600020E0E60020DEE60220DFE6C04687
:101048000400008000FFFF0708270140001000B0DF
:10105800004000B8002000B4FFFF3FFE0800002059
:10106800400D030030B583B00400002301930368EA
:101078009A68D2074FD49968284A114211D19A68C0
:1010880027490A4001210A439A60264B1B681B0224
:1010980017D5254B18682549FFF714F8013001903A
:1010A8000CE0836D102213438365C36D0F3A13431D
:1010B800C365012030E0019B013B0193019B002B9C
:1010C800F9D1637E012B01D1002025E001F0CCF895
:1010D800050023681A68D2071BD49A68D20705D47A
:1010E8009A680F490A4001210A439A6001F0BCF846
:1010F800401B0228EDD923681B68DB07E9D4A36DE0
:1011080010221343A365E36D0F3A1343E3650120EF
:1011180002E0002000E0002003B030BD170000808E
:10112800E8FFFF7F0827014008000020400D03006A
:1011380070B504000D001600026893685B0747D479
:101148005423C35C012B45D0012354214354D16857
:101158000B420DD19368DB0705D593681E490B40F8
:1011680002210B4393602268D36801210B43D360AB
:101178002000FFF777FF00282BD1A26D174B1A40EC
:1011880080235B001343A3650023E365226D1449A4
:10119800D162226D13491163226D1349516322688C
:1011A8001C2111605422A354226853680C390B4344
:1011B800536021684031206D33002A0000F0CAFED8
:1011C8002268936804490B4004210B43936000E0B4
:1011D800022070BD0220FCE7E8FFFF7FFEF0FFFF62
:1011E800F50B0008CB0B0008D90B000870B50400FC
:1011F80003689A68022108001040114200D00120BB
:101208009A68D20735D5002835D1996805220A4051
:10121800012A09D0A36D10221343A365E36D0F3A89
:101228001343E365012025E09A6814490A40022126
:101238000A439A60236803221A6001F015F8050032
:1012480023689B68DB0712D501F00EF8401B0228C3
:10125800F6D923689B68DB07F2D5A36D10221343E8
:10126800A365E36D0F3A1343E365012002E0002014
:1012780000E0002070BD0020FCE7C046E8FFFF7FCB
:10128800F0B5CE46474680B583B0040000230193ED
:101298005433C35C012B00D18BE001265423C65480
:1012A800FFF7A4FF050023689A6831001140164231
:1012B8000CD0A36D10221343A36554230022E254DB
:1012C800280003B0C0BCB946B046F0BDA26D3A488C
:1012D80002400630FF300243A265DE68374A1640F6
:1012E800DA6837480240DA60080005E0B4229A5804
:1012F8007F231340C018013107291CD82768BA6812
:10130800304B1A4018331343BB6023689A68002A8D
:10131800ECDA019B01330193019A2B4B9A42F4D9E1
:10132800A36D12229343023A1343A3655423002268
:10133800E2540125C4E7FEF7C5FE226893682149F7
:101348000B4001273B4393602768B4239946FB5819
:1013580098467F2342469A4310434B46F8502268EA
:1013680093680B4002210B43936000F07DFF070058
:1013780023689A68D20709D4DA683243DA60A36D21
:1013880003229343023A1343A36596E700F06CFFE8
:10139800C01B0228ECD923689B68DB07E8D5A36D3E
:1013A80010221343A365E36D0F3A1343E365012548
:1013B80086E7022584E7C046FDFEFFFF03800000A4
:1013C800FC7FFFFFE8FFFF7FFFF1020070477047D7
:1013D8007047704770B582B0041E00D129E20368D7
:1013E800DB0739D5C14A916838230B40D1680322FD
:1013F8000A40102B26D0082B26D063688022520280
:1014080093427FD0A022D202934200D181E0B74B11
:101418001A68B7490A401A601A68B6490A401A6039
:101428006368002B00D180E000F01EFF0500AF4B81
:101438001B689B0310D400F017FF401B6428F6D9E3
:101448000320F7E1032AD6D1A84B1B689B0303D5D9
:101458006368002B00D1EFE123689B0731D5A34ACD
:10146800916838230B40D16803220A40102B6AD0B8
:10147800002B6BD19D4A1268520503D5E268002AF9
:1014880000D1DBE1994842689B490A406169090239
:101498000A434260002B0DD1036898490B4021692B
:1014A8000B4303600368DB0A07221A40944BD340BE
:1014B800944A1360944B186800F08AFE002800D004
:1014C800BEE123681B0700D481E0884B9A68382363
:1014D8001340182B73D0A369002B00D1B4E0834AC2
:1014E800136E01210B43136600F0BEFE05007F4B0F
:1014F8001B6E9B076BD400F0B7FE401B0228F6D981
:10150800032097E1794A116880235B020B4313603B
:1015180086E7764B19688022D2020A431A60196856
:10152800802252020A431A607AE700F09DFE050005
:101538006E4B1B689B038FD500F096FE401B6428FA
:10154800F6D9032076E1022A92D193E7E368002BCB
:1015580022D0664A136869490B4021690B4313601E
:10156800116880235B000B43136000F07DFE0500CB
:101578005E4B1B685B0506D400F076FE401B022814
:10158800F6D9032056E159494B685B4A1340626912
:10159800120213434B6094E7544A13685B490B40AB
:1015A800136000F061FE0500504B1B685B0588D591
:1015B80000F05AFE401B0228F6D903203AE14B4BB3
:1015C8001B6E9B0703D5A369002B00D13AE1236862
:1015D8005B0700D4A2E0454B9A6838231340202BC0
:1015E80045D0424BDB6BDB004AD4404BDA6B8021A1
:1015F80049050A43DA63DB6B0B400193019B012524
:10160800434B1B68DB053DD5A368012B4ED0052B4A
:1016180052D0364BDA6D01218A43DA65DA6D03312F
:101628008A43DA65A368002B50D000F01DFE06003F
:101638002E4BDB6D9B076FD400F016FE801B354BDD
:101648009842F5D90320F5E0284A136E01218B430F
:10165800136600F009FE0500244B1B6E9B07B6D5E8
:1016680000F002FE401B0228F6D90320E2E01F4BDF
:10167800DB6D9B0752D5A368002B4FD10120D9E021
:101688000025BDE7224A116880235B000B431360E5
:1016980000F0EAFD06001E4B1B68DB05B4D400F021
:1016A800E3FD801B0228F6D90320C3E00F4AD36D5F
:1016B80001210B43D365B5E70C4BDA6D04210A43CE
:1016C800DA65DA6D03390A43DA65ABE700F0CCFD79
:1016D8000600064BDB6D9B071ED500F0C5FD801B81
:1016E8000C4B9842F5D90320A4E0C04600100240F4
:1016F800FFFFFEFFFFFFFBFFFF80FFFFFFC7FFFFAE
:101708000024F4000800002004000020FFFEFFFF72
:101718000070004088130000012D1ED0E369002BE3
:1017280000D191E04F4A916838220A40102A5ED0D1
:10173800022B18D04B4A13684B490B40136000F03A
:1017480093FD0400474B1B689B0149D500F08CFDB5
:10175800001B0228F6D903206CE0424AD36B4349A8
:101768000B40D363DAE73F4A13683F490B401360E5
:1017780000F07AFD05003B4B1B689B0106D500F085
:1017880073FD401B0228F6D9032053E0354AD3687D
:1017980037491940236A606A0343A06A0002034379
:1017A800E06A0343206B03430B43D3601168802333
:1017B8005B040B431360D16880235B050B43D36044
:1017C80000F052FD0400274B1B689B0106D400F073
:1017D8004BFD001B0228F6D903202BE0002029E04E
:1017E800204AD36823490B40D360002022E0012B14
:1017F8002CD01C4BDA6803231340216A8B4227D173
:1018080070231340616A8B4224D1FE21C901114023
:10181800A36A1B0299421FD1F8239B031340E16A74
:101828008B421BD1520F5207236B9A4218D10020CA
:1018380000E0012002B070BD0120FBE70120F9E7BC
:101848000120F7E70120F5E70020F3E70120F1E7A1
:101858000120EFE70120EDE70120EBE70120E9E7B0
:101868000120E7E700100240FFFFFFFEFFFFFFEF48
:101878008C80C11FFCFFFEEF10B52A4B9B683822F5
:101888001A4207D1274B1A68D20A07231340264861
:10189800D84010BD234B9A6838231340082B3BD0FF
:1018A800204B9A6838231340102B0DD01D4B9A6893
:1018B80038231340202B31D01A4B9A683823134011
:1018C800182B26D00020E4E7164AD1680D3B0B40C0
:1018D800D2681209072111400131032B0FD0124899
:1018E800FEF7F0FB0F4BDA68120A7F2313405843C8
:1018F8000C4BD968490F0131FEF7E4FBC9E70B48E7
:10190800FEF7E0FB074BDA68120A7F2313405843BF
:10191800EEE7FA20C001BCE70448BAE780200002DD
:10192800B7E7C046001002400024F40000127A0015
:1019380070B504000D00002800D1AAE0574B1A68C2
:10194800072313408B4221D323689A070ED55B07E0
:1019580005D5534A9168E023DB010B439360504A55
:10196800936850490B40A1680B4393602368DB07D9
:1019780054D56368012B20D0022B3BD0002B3FD1DC
:10198800474A126852051CD401206AE0434A13688A
:1019980007218B432B43136000F066FC06003F4B86
:1019A8001A6807231340AB42CED000F05DFC801BC1
:1019B8003D4A9042F3D9032053E0394A1268920312
:1019C80069D537498A680720824313438B6000F042
:1019D8004BFC0600324B9B6838221A406368DB00D8
:1019E8009A421BD000F040FC801B2F4B9842F1D943
:1019F800032036E02A4A12689201E2D4012030E03E
:101A0800032B05D0264AD26D9207DAD4012028E0AC
:101A1800234A126E9207D4D4012022E01F4B1A6881
:101A280007231340AB421DD823685B0706D51C4A21
:101A380093681E490B40E1680B439360FFF71CFF56
:101A4800174B9A68120A0F231340194A9B009A5899
:101A58001F231340D840174B1860174B186800F025
:101A6800B7FB70BD0D4A136807218B432B431360E6
:101A780000F0FAFB0600094B1A6807231340AB4233
:101A8800D2D000F0F1FB801B074B9842F3D903201A
:101A9800E7E70120E5E70120E3E7C0460020024030
:101AA80000100240FFF0FFFF88130000FF8FFFFFC8
:101AB800844D00080800002004000020014B18682D
:101AC8007047C0460800002010B5FFF7F7FF064B27
:101AD8009A68120B07231340044A9B009A581F2345
:101AE8001340D84010BDC04600100240644D0008A5
:101AF800F0B583B0040003689B0362D5534BDB6BDE
:101B0800DB001ED4514BDA6B802149050A43DA63A6
:101B1800DB6B0B400193019B01264D4A1168802322
:101B28005B000B43136000F09FFB0500484B1B68EC
:101B3800DB0508D400F098FB401B0228F6D90325E2
:101B480002E00026E9E70025002D23D13F4BD96D9F
:101B5800C02292000B001340114210D062699A42D1
:101B68000DD03A4AD36D3B490B40D06D80214902D4
:101B78000143D165D16D38480140D165D365DB0794
:101B880010D4002D06D1314AD36D32490B4061691A
:101B98000B43D365012E15D12C4AD36B2F490B402B
:101BA800D3630FE000F060FB0700284BDB6D9B0759
:101BB800E7D400F059FBC01B294B9842F5D90325FF
:101BC800DFE700252368DB0706D5204A536D03218C
:101BD8008B4361680B43536523689B0606D51B4AF4
:101BE800536D20490B40A1680B43536523685B0480
:101BF8000BD5164A536D9B009B0821690B4353650F
:101C080022698023DB059A4211D023681B050BD576
:101C18000E4A536D14490B40E1680B435365E26863
:101C28008023DB019A4209D0280003B0F0BD074A9F
:101C3800D16880235B020B43D360E6E7034AD1688F
:101C480080235B020B43D360EEE7C04600100240DE
:101C580000700040FFFCFFFFFFFFFEFFFFFFFFEFEC
:101C680088130000FFCFFFFFFF3FFFFFF0B5002301
:101C780059E086685F000324BC40A643CC68BC409A
:101C880034438460446894434E68360901223240E4
:101C98009A402243426056E0DE080836B6003758BC
:101CA80005321A4092000F249440A7430C699440CF
:101CB80022003A43325059E0032600E00026A640AD
:101CC80034003C43424E1832920094513768EA433C
:101CD8003E00AE434C68E40201D53E002E433C4C26
:101CE800266067683E0016404C68A40201D53E0095
:101CF8002E43374C66608426A7593E0016404C6830
:101D0800A40301D53E002E43314C8427E65180269A
:101D1800A65932404C68E40301D52A0032432C4DC1
:101D280080242A5101330C682200DA404ED0012267
:101D38009A40250015401442F4D04E6803243440DC
:101D4800013C012C95D94C6803222240032A08D073
:101D5800C4685E000322B24094438A68B2402243BA
:101D6800C2604C6803222240022A95D004685E00B3
:101D780003221700B740BC434F683A40B2402243A1
:101D880002604C68C02292021442CBD09A08140018
:101D98001834A4000E4EA75903241C40E4000F2653
:101DA800A640B743A026F605B04287D0094EB042F8
:101DB80008D0094EB04207D0084EB04200D17BE7A8
:101DC80005267CE701267AE7022678E7F0BDC046BB
:101DD800001802400004005000080050000C005099
:101DE800002A01D0816170478162FCE742691300D3
:101DF8000B401B0491430B4383617047F0B5846C1F
:101E0800C56C6560046D002C02D0446D856D6560FD
:101E18000B4F7C68056C1C262E400125B5402C43D1
:101E28007C60046863608368102B04D00368996041
:101E38000368DA60F0BD03689A600368D960F9E75F
:101E48000000024010B50400036C9B08094A944640
:101E580063449B0043640368FF201840083814213A
:101E6800FEF730F9044BA3641F2318401E3B834040
:101E7800E36410BD008200108008024042683F23DE
:101E88001340064A9A1892000265054A4265013BCA
:101E980003221A4001239340836570473F82001054
:101EA8004009024070B5041E4DD00568274BE8185C
:101EB8001421FEF707F98000206425230222E2544A
:101EC8002B68234A13402B6021680A68A368E068DE
:101ED80003432069034360690343A0690343E0693E
:101EE8000343206A034313430B602000FFF7AAFF54
:101EF800A2688023DB019A4218D06168626C3F2394
:101F08000B401360A36CE26C5A606368013B032BBF
:101F18000FD9002323656365A3650023E3632522A6
:101F28000121A154013AA354002070BD002363602D
:101F3800E3E72000FFF7A2FF236D00221A60636D1C
:101F4800A26D5A60E9E70120EFE7C046F8FFFDBF40
:101F58000F80FFFF70B504002420205C012845D0C5
:101F68002420012525540130205C012806D0802337
:101F7800E3635C3B0022E254012070BD243001354C
:101F880025540020E063256828680126B0432860AE
:101F98002000FFF733FF236B002B1CD02268136847
:101FA8000E210B431360626C1368DB0304D51168C0
:101FB80080235B000B431360236D002B04D019684A
:101FC800802252000A431A602268136801210B43D9
:101FD80013600020D1E72268136804218B43136043
:101FE8002268136806310B431360DCE70220C4E75C
:101FF80070B5314B196804682568026C1C231340BE
:1020080004229A40114216D06A0714D523689B0609
:1020180003D42368042293432360274C6368026C2B
:102028001C21114004228A4013436360036B002B78
:1020380000D0984770BD02229A4011421CD0AA07CE
:102048001AD523689B0606D423680A229343236083
:102058002523093AC254184C6368026C1C211140AC
:1020680002228A401343636024230022C254C36AB5
:10207800002BDFD09847DDE708229A401142D9D0DB
:102088002D07D7D523680E22934323600A4C626834
:10209800036C1C21194001231D008D402A436260F6
:1020A800C3632522835423330022C254436B002B7D
:1020B800C0D09847BEE7C0460000024010B5104A9D
:1020C800136810490B400343136080239B00984218
:1020D80001D0002010BD0C4B1B685800C0184000F0
:1020E8000A49FDF7EFFF0130054B5B695B0503D536
:1020F800002803D00138F7E70020EBE70320E9E7E1
:1021080000700040FFF9FFFF0800002040420F0068
:1021180070B5002811DB8308134DC0339B005C5950
:1021280003221040C000FC3216008640B4438901E7
:102138000A40824022435A5170BD0F230340083B96
:102148009B0806339B00094A944663445C68032253
:102158001040C000FC3215008540AC4389010A409C
:10216800824022435A60E7E700E100E000ED00E02A
:10217800013880235B0498420FD2094A506009480D
:10218800036A1B021B0AC02109060B4303620023D2
:10219800936007331360002070470120FCE7C046B6
:1021A80010E000E000ED00E010B5FFF7B1FF10BD52
:1021B800002805DB1F22024001239340014A1360D7
:1021C8007047C04600E100E010B5FFF7D1FF10BD31
:1021D80010B50400114B1978002901D1012010BD58
:1021E800FA208000FDF76EFF01000D4B1868FDF71F
:1021F80069FFFFF7E9FF00280DD1032C01D9012061
:10220800EDE70130002221004042FFF7CDFF054BEA
:102218001C600020E3E70120E1E7C0460000002041
:10222800080000200400002010B5084A1168802327
:102238005B000B4313600320FFF7CAFF041E02D0A4
:102248000124200010BDFEF781FBFAE700200240C0
:10225800034B1B78034A11685B1813607047C0462C
:1022680000000020F8010020014B18687047C046A4
:10227800F801002010B5040083680269134342691D
:102288001343C269134301680A685B480240134359
:102298000B602268536859490B40E1680B4353604F
:1022A800A369226A1A4321688B685548034013437F
:1022B8008B602268D36A0F218B43616A0B43D36218
:1022C8002368504A934229D04F4A934237D010236B
:1022D800E0698022120290423BD0042B00D183E0B7
:1022E8006CD8002B00D178E0022B65D14748626A90
:1022F800474B5200D15AFDF7E5FE61684B08C018FC
:10230800FDF7E0FE0200103A424B9A4200D970E015
:1023180023680004000CD860002055E03E4B5A6D3D
:1023280003231340022B0CD005D8002B0BD0012B14
:102338000BD10333CCE7032B09D10533C8E70023BE
:10234800C6E70223C4E70023C2E71023C0E710232F
:10235800BEE7042B2DD022D8002B24D0022B1CD171
:102368002A48626A2A4B5200D15AFDF7ABFE400058
:1023780061684B08C018FDF7A5FE0200103A254B0E
:102388009A4234D882B20F239A434008083B03404C
:1023980013432268D360002016E0012014E0082BC4
:1023A800DFD0012010E0FFF78FFB0028D9D10020F3
:1023B8000AE0FFF761FAF8E7012005E0082B02D1EF
:1023C8008020000293E7012001236A22A352023AE7
:1023D800A35200236367A36710BDFFF775FB0028AE
:1023E80000D084E70020EFE7FFF746FAF7E701207F
:1023F800EAE70120E8E7C046F369FFCFFFCFFFFF18
:10240800FFF4FF1100380140004400400024F400AC
:102418003C4D0008EFFF000000100240836ADB0714
:1024280006D5026853682C490B40C16A0B435360B8
:10243800836A9B0706D50268536828490B40016BDD
:102448000B435360836A5B0706D5026853682449C7
:102458000B40416B0B435360836A1B0706D5026828
:10246800536820490B40816B0B435360836ADB063A
:1024780006D5026893681C490B40C16B0B439360F7
:10248800836A9B0606D50268936818490B40016C5D
:102498000B439360836A5B060BD502685368144943
:1024A8000B40416C0B435360426C80235B039A42A0
:1024B8000AD0836A1B0606D5026853680D490B408B
:1024C800C16C0B4353607047026853680A490B405C
:1024D800816C0B435360ECE7FFFFFDFFFFFFFEFF3E
:1024E800FFFFFBFFFF7FFFFFFFEFFFFFFFDFFFFFA8
:1024F800FFFFEFFFFFFFF7FFFFFF9FFFF8B5CE4697
:10250800474680B506000D0017009946089B984677
:102518003368DC692C40641B63425C41BC4257D180
:1025280043460133F4D0FFF79FFE4B46C01A40459F
:102538002ED84346002B2BD0326813685B07E7D5AB
:10254800D3691B05E4D580231B011362EFF31080C8
:10255800012282F3108831680B68204C23400B60FD
:1025680080F31088EFF3108082F3108831688B684D
:1025780093438B6080F3108820238732B350043252
:10258800B3500432B35064330022F254032020E0E5
:10259800EFF31080012282F3108831680B680F4C2A
:1025A80023400B6080F31088EFF3108082F31088CB
:1025B80031688B6893438B6080F3108820238732BF
:1025C800B3500432B35064330022F254032000E0C5
:1025D8000020C0BCB946B046F8BDC0465FFEFFFF4C
:1025E800F0B5C64600B582B004000D0090461E0046
:1025F8008823C358202B5CD100295FD0002A5FD0E4
:10260800826880235B019A4204D10369002B01D1BF
:10261800CB0757D490230022E250083B2132E250E6
:10262800FFF722FE070054234246E2520233E252E9
:10263800A26880235B019A4202D00023984613E0E7
:102648002369002B25D0002398460DE043461B88BC
:102658002268DB05DB0D936202239C46E044562387
:10266800E25A013A92B2E2525623E35A9BB2002B45
:1026780012D000963B00002280212000FFF73EFF89
:10268800002821D1002DE1D02A7823689A620135EB
:10269800E5E7A8460025E7E700963B000022402131
:1026A8002000FFF72BFF002810D188232022E250BA
:1026B80000E0022002B080BCB846F0BD0120F9E776
:1026C8000120F7E70120F5E70320F3E70320F1E70E
:1026D80030B583B0040090230022C250FFF7C4FD38
:1026E800050023681B681B0710D423681B685B0759
:1026F80019D420238822A3500432A3500023E36670
:102708002367083AA354002003B030BD80210C4B46
:1027180000930300002289032000FFF7EFFE002842
:10272800E3D00320F0E78021054B00932B00002223
:10273800C9032000FFF7E2FE0028DAD00320E3E710
:10274800FFFFFF0110B5041E30D08823C358002BAB
:1027580022D088232422E2502268136801218B4367
:1027680013602000FFF786FD012814D0A36A002B10
:1027780018D1226853680E490B4053602268936849
:102788002A218B4393602268136829390B4313600D
:102798002000FFF79DFF10BD84330022C254FEF7CE
:1027A8006FF8D6E72000FFF739FEE2E70120F2E7ED
:1027B800FFB7FFFFF8B50400436E002B05D10133C6
:1027C8006A228352023A8352F8BD026895686D0EF8
:1027D80007231D409268520F1340084FF85CC00051
:1027E800074EF15CFDF7F8FC6A23E052785DC00003
:1027F800715DFDF7F1FC6823E052E5E75C4D0008E8
:10280800544D000870B58423C35C012B15D0842473
:102818000126065588252423435102681368116848
:10282800B1431160064A13400022426601680B60FA
:10283800202343510255002070BD0220FCE7C0460A
:10284800FFFFFFDFF8B504000A008423C35C012BF7
:102858001BD084250120605588262423A351236892
:102868001F6819688143196020688368DB00D908EC
:10287800114381602000FFF79DFF23681F6020231C
:10288800A351002363550020F8BD0220FCE7000097
:10289800F8B504000B008422825C012A1BD0842531
:1028A8000120605588262422A251226817681168E1
:1028B800814311602268916808480140194391607A
:1028C8002000FFF777FF23681F602023A351002310
:1028D80063550020F8BD0220FCE7C046FFFFFFF16A
:1028E800704700680B68C01A7047000010B50B4BA2
:1028F8001B78272B07D80A4A99008850074A0133C2
:102908001370002010BD074B05480422282100F051
:102918009EF8024B00221A700120F3E7A002002063
:1029280000020020EB280008D0B506000C000223A6
:10293800002003E09A00925980180133A21E9A429F
:10294800F8D802F093F806000F00201F02F05EF896
:1029580002000B003000390001F07EF901F05EF949
:10296800D0BD000010B50C00FFF7C0FF002807D04D
:1029780004482821FFF7D8FF034B18602060012086
:1029880010BDC04600020020FC0100200D4885460D
:10299800FFF7A6FF0C480D490D4A002302E0D45862
:1029A800C4500433C4188C42F9D30A4A0A4C002391
:1029B80001E013600432A242FBD300F007FBFDF7ED
:1029C800FDFDFEE700200020000000206800002038
:1029D800404E000868000020F4030020FEE730B5F0
:1029E8000024022B09D0920803590D59013A0551C8
:1029F8000B510434002AF7DC30BD035D0D5D05552D
:102A08000B550134131B002BF7DCF5E7F8B50F0065
:102A1800160004001D009847310000280DDA380020
:102A2800A847002802DA3C002000F8BD3100200049
:102A3800A8470028F8DA3400F6E73800A847002845
:102A4800F1DC31002000A8470028F4DAECE7F0B503
:102A580099B000900393009B1700134302220800CB
:102A680001929B0704D13B1F1A00531E9A41019201
:102A7800002304933C00009B4443DB190293009B12
:102A88001B190793062828D8029B079A93420CD350
:102A9800049B002B00D021E119B0F0BD3A002900B9
:102AA8002000019BFFF79BFF0FE0029C0EE0E51B57
:102AB80021002800039B984700280ADD019B002B72
:102AC800ECD123682A6822602B602C00009BA3426B
:102AD800EDD3029BDB190293D6E746087E43009BA1
:102AE800E41B9E191C19072821D0220005932828C9
:102AF80017D9C5087D4359194A19039B0098FFF750
:102B080085FF31007219039B0590701BFFF77EFF4C
:102B180006006800201A2200039B4119FFF776FF80
:102B280002003100039B0598FFF770FF0600019B28
:102B3800002B21D1009B32681B6800990A60336022
:102B48000026029D05940695A54252D828000099B2
:102B5800039B984700282DDC0CD1019B002B12D138
:102B6800069B2A681B6806990A602B60069BDB197E
:102B780006930126ED19E7E73A003100019B00981A
:102B8800FFF72DFFDCE73A002900019B0698FFF7C5
:102B980026FFEBE700280CD1019B002B1BD1059ADF
:102BA800236812682260059A13600126059BDB1BC7
:102BB8000593E41BAC421CD320000099039B984763
:102BC8000028E7DA019B002B0CD12B6822682A60C9
:102BD8002360E41BCDE73A002000019B0599FFF72D
:102BE800FEFEE2E73A0021002800019BFFF7F7FE0E
:102BF800EFE7002E23D1029B079A934200D347E7C1
:102C0800029C15E03A0029002000019BFFF7E7FE2F
:102C18000DE0E51B21002800039B984700280ADDEA
:102C2800019B002BEED123682A6822602B602C00C0
:102C3800009BA342EDD3029BDB190293DBE7069BC3
:102C4800009AEE1A9A1AB24200DD3200002A04D025
:102C5800019B0098A91AFFF7C2FE059B059A1C1B49
:102C6800079B9A1AD21BA24200D92200002A05D03B
:102C7800079B2800991A019BFFF7B1FE079B029654
:102C88001D1BB44204D9009B0294009534001D001A
:102C9800BC422CD9049B072B13D8009908AADB0047
:102CA800995002989B1839001E00FDF70BFA049BF7
:102CB80070600133390020000493FDF703FA009592
:102CC800D8E639002000FDF7FDF9039B01003A0022
:102CD8002800FFF7BCFE029BBB420CD8049B08AA45
:102CE800013B0493DB009D589B185868E7E7029B5B
:102CF800BB4200D8CCE639000298FDF7E3F9009D05
:102D0800DDE70000002310B5040003604360836022
:102D1800818143661900C28103614361836108228E
:102D28005C3000F0FDF8054B24626362044BA3623B
:102D3800044BE362044B236310BDC046912E000888
:102D4800B92E0008F12E00081D2F000810B5034AFF
:102D58000349044800F06CF810BDC0460C00002080
:102D6800C53800081C00002041680B4B10B5040052
:102D7800994201D000F0A2FDA168084B994202D007
:102D8800200000F09BFDE168054B994202D020002D
:102D980000F094FD10BDC046A40200200C030020E2
:102DA8007403002010B5094B094A04211A60094828
:102DB8000022FFF7A7FF012209210748FFF7A2FF1A
:102DC800022212210548FFF79DFF10BDDC030020F9
:102DD800552D0008A40200200C03002074030020D5
:102DE80010B5024800F016F910BDC046E5030020F2
:102DF80010B5024800F00FF910BDC046E5030020E9
:102E080010B50400FFF7ECFF236A002B02D0FFF790
:102E1800EFFF10BD044B2362044B1B68002BF6D157
:102E2800FFF7C0FFF3E7C046712D0008DC03002060
:102E3800F7B51400002600900191A5686768013F66
:102E480004D52468002CF8D13000FEBDAB89012BD5
:102E580008D90E22AB5E013304D029000098019BEB
:102E6800984706436835EAE70FB407B5054904AB48
:102E7800086804CB8168019300F0E6F903B008BC48
:102E880004B018471800002070B50C000E25495FE3
:102E980000F074F8002803DB636D1B18636570BDD0
:102EA800A389024A1340A381F9E7C046FFEFFFFF59
:102EB800F8B51F008B8905000C001600DB0505D549
:102EC8000E23C95E0022022300F044F8A389054AB4
:102ED80028001340A38132000E23E15E3B0000F07E
:102EE80061F8F8BDFFEFFFFF70B50C000E25495FD4
:102EF80000F030F8A389421C03D1054A1340A3818E
:102F080070BD802252011343A3816065F8E7C04673
:102F1800FFEFFFFF10B50E23C95E00F009F810BDE2
:102F280003008218934200D1704719700133F9E702
:102F3800002370B5064D040008002B6000F038FE31
:102F4800431C03D12B68002B00D0236070BDC04602
:102F5800E003002070B50400080011001A000023E7
:102F6800054D2B6000F03CFE431C03D12B68002B61
:102F780000D0236070BDC046E003002070B5040097
:102F8800080011001A000023054D2B6000F030FEE8
:102F9800431C03D12B68002B00D0236070BDC046B2
:102FA800E003002070B50400080011001A00002397
:102FB800054D2B60FDF7A6FC431C03D12B68002BA5
:102FC80000D0236070BDC046E003002070B5002625
:102FD8000C4C0D4D641BA410A64209D1002601F02B
:102FE80095FE0A4C0A4D641BA410A64205D170BD7B
:102FF800B300EB5898470136EEE7B300EB58984713
:103008000136F2E7384E0008384E00083C4E0008FA
:10301800384E00087047704770B505000C1E10D078
:10302800043C2368002B00DAE418280000F0D4F8E8
:103038001D4A1368002B05D163601460280000F056
:10304800D3F870BDA34208D9206821188B42F3D168
:1030580019685B6809182160EEE71A005B68002BA5
:1030680001D0A342F9D911685018A0420BD12068A9
:103078000918501811608342E0D118685B6841183C
:1030880011605360DAE7A04202D90C232B60D5E720
:10309800206821188B4203D119685B6809182160E0
:1030A80063605460CAE7C046EC03002070B50F4E59
:1030B8000D0031680400002902D100F0CBFC30601B
:1030C8002900200000F0C6FC431C03D101256D42F5
:1030D800280070BD0323C51C9D43A842F8D0291AB7
:1030E800200000F0B7FC0130F2D1EFE7E803002040
:1030F800F8B50323CD1C9D43083506000C2D31D2AD
:103108000C25A94230D8300000F066F8314F3B68F2
:103118001C00002C2CD129003000FFF7C7FF040049
:10312800431C55D13C682100002948D1002C49D0C6
:1031380027683000E71900F08DFC874242D12368E8
:103148000335ED1A03239D4308350C2D00D20C25B9
:1031580029003000FFF7AAFF013033D023685B193C
:10316800236012E0002DCCDA0C2333600020F8BD78
:103178002168491B20D40B2917D962192560A3425D
:1031880011D13A60636811605360300000F02CF888
:10319800200007220B30231D9043C21A9842E6D024
:1031A8001B1AA350E3E75A60ECE76268A34201D117
:1031B8003A60EAE75A60E8E723006468A9E70C0088
:1031C8004968B1E70C233000336000F00DF8CDE713
:1031D8000560DAE7EC03002010B50248FFF71AFF94
:1031E80010BDC046E403002010B50248FFF713FFE6
:1031F80010BDC046E4030020936810B5013B9360FE
:10320800002B04DA9469A34207DB0A2905D0136866
:10321800581C10601970080010BD00F07AFB0100FE
:10322800F9E7F8B506000F001400D518AC4201D133
:10323800002007E021783A003000FFF7DDFF013475
:10324800431CF3D1F8BD0000F0B5A1B00F00150084
:103258001E000390002804D0036A002B01D1FFF759
:10326800CFFD7B6EDB0705D4BB899B0502D4B86D07
:10327800FFF7D0FEBB891B0702D53B69002B13D192
:103288003900039800F088FB00280DD07B6EDB071F
:1032980003D50120404221B0F0BDBB899B05F8D47D
:1032A800B86DFFF7B8FEF4E7002308AC636120337C
:1032B80063761033A37607962E003378002B01D05F
:1032C800252B48D1731B0593AE420BD02A00390039
:1032D8000398FFF7A6FF013000D1AEE06369059AB5
:1032E8009B1863613378002B00D1A6E001220023EC
:1032F8005242626004A954325218751C2360E3607C
:10330800A3601370A365594B05221800297805930B
:1033180000F0B2FB6E1C00281FD12268D30604D52A
:10332800532304A95B1820211970130704D55323CC
:1033380004A95B182B2119702B782A2B16D02E0084
:1033480000210A20E3683278751C303A092A50D9DE
:10335800002911D117E00136AFE7059B2268C01A92
:1033680001238340134335002360CCE7079B191DD5
:103378001B680791002B01DB0B9304E05B42E360C1
:1033880002231343236033782E2B0CD173782A2B16
:1033980034D1079B02361A1D1B680792002B01DAED
:1033A80001235B420993324D03222800317800F053
:1033B80063FB002806D04023401B83402268013667
:1033C80013432360317806222A48751C217600F0C1
:1033D80053FB002840D0284B002B22D10722079B03
:1033E80007339343083307936369049A9B1863610F
:1033F80062E743432E0001219B18A4E700230A201B
:103408001900013663603278751C303A092A03D9ED
:10341800002BC8D00991C6E741432E000123891823
:10342800F1E707AA009221003A00144B039800E044
:1034380000BF0490049B0133D6D17B6EDB0705D413
:10344800BB899B0502D4B86DFFF7E5FDBB895B0618
:1034580000D51EE70D981EE707AA009221003A0042
:10346800064B039800F07CF8E3E7C046C44D00081B
:10347800CA4D0008CE4D0008000000002B3200089D
:10348800F7B5160001938A680B690C000090934207
:1034980000DA13002200336043321278002A01D088
:1034A8000133336023689B0602D5336802333360E7
:1034B8002268062315001D401A4227D023004333F3
:1034C8001B785A1E93412268920630D42200019933
:1034D8000098089D4332A847013025D0062223686A
:1034E80000251340042B05D13368E568ED1AEB433A
:1034F800DB171D40A3682269934201DD9B1AED1872
:103508000026B54220D1002010E00135E36832687A
:103518009B1AAB42D2DD2200012301990098089F33
:103528001932B8470130F0D101204042FEBD3020A9
:10353800E1184331087021005A1C45310978A21856
:10354800433202331170C1E7220001230199009828
:10355800089F1A32B8470130E6D00136D1E700009B
:10356800F0B58BB006920A00433207930590049297
:103578000A7E0C00109B782A09D8622A0BD8002AE8
:1035880000D1CEE084490391582A00D19FE026005B
:103598004236327022E0100063381528F7D8FCF75D
:1035A80087FD16001F00F6FFF6FFF6FFF6FF1F0067
:1035B800F6FFF6FFF6FFF6FFB3004F008F00F6FFA9
:1035C800F6FFC400F6FF4F00F6FFF6FF9300260053
:1035D8001A684236111D1960136833700123B2E06E
:1035E80018680968021D0D061FD505681A606A4A21
:1035F8000A2761680392002D38DA23002D2043330F
:103608001870A160002916DA0A276D420392049EF9
:1036180028003900FCF7DCFD039B013E5B5C33703E
:103628002B0005009F42F3D92DE005681A60490672
:10363800DDD52DB2DBE7042123688B432360E3E764
:103648000D681968081D18602E0601D50D6803E07D
:103658006D06FBD50D68ADB24F4B0A2703936F2A51
:1036680000D1023F2300002243331A706368A3602D
:10367800002BCCDB042122688A432260002DC6D1AE
:10368800049E002BC3D1082F09D12368DB0706D578
:10369800626823699A4202DC3023013E3370049B3E
:1036A8009B1B2361079B210000930598069B09AA91
:1036B800FFF7E6FE01304BD1012040420BB0F0BDD0
:1036C800202209680A4322607822344903912100A4
:1036D80045310A7019682268081D1860150601D559
:1036E8000D6803E05506FBD50D68ADB2D30702D5CA
:1036F800202313432360002D01D01027B2E7202296
:10370800236893432360F8E71A680D68101D496918
:10371800186013682E0601D5196002E06D06FBD506
:1037280019800023049E2361BCE71A68111D1960E3
:10373800166800213000626800F09EF9002801D068
:10374800801B6060636823610023049A1370A9E7F3
:103758003200236906990598079DA8470130ABD028
:1037680023689B0715D4099BE0689842A6DA1800DD
:10377800A4E72200012306990598079E1932B0474D
:10378800013099D00135E368099A9B1AAB42F0DC05
:10379800E9E70025F7E7C046D54D0008E64D0008E3
:1037A800F7B50C228B5E05000C001A0761D44A6835
:1037B800002A02DC0A6C002A42DDE76A002F3FD0AB
:1037C800002280202E682A601A004001216A0240E7
:1037D800034227D0626DA3895B0706D56368D21AB6
:1037E800636B002B01D0236CD21A00232800E76AF0
:1037F800216AB847431C25D00023636023692360EE
:10380800A389DB0400D56065616B2E60002917D0A1
:1038180023004433994202D02800FFF7FDFB002320
:1038280063630DE001232800B8470200431CD2D18E
:103838002B68002BCFD01D2B01D0162B31D12E6039
:10384800002035E02B680C21625E002B08D01D2B70
:1038580001D0162B0AD10023636023692360D3E7C4
:10386800636023692360D204CDD4CDE7402313439A
:103878001BE00E69002EE3D00F680E60BA1B0192A0
:1038880000229B0700D14A69A260019B002BD7DD6B
:10389800A36A32001F002800019B216AB84700284C
:1038A80007DC4023A28913431BB20120A3814042B5
:1038B800FEBD019B36181B1A0193E6E70B6970B52C
:1038C80005000C00002B02D10025280070BD00283F
:1038D80004D0036A002B01D1FFF792FA0C22A35EF1
:1038E800002BF1D0626ED20704D49B0502D4A06DE0
:1038F800FFF790FB28002100FFF752FF636E0500D9
:10390800DB07E2D4A3899B05DFD4A06DFFF783FB17
:10391800DBE7F8B506000D001400002804D0036AA0
:10392800002B01D1FFF76CFAA369A360A3891B07D9
:1039380002D52369002B09D12100300000F02CF8B2
:10394800002803D001256D422800F8BD23692068AE
:10395800EFB2C01A6369EDB2834205DC2100300082
:10396800FFF7ACFF0028EDD1A3680130013BA3604D
:1039780023685A1C22601F706369834204D0A3899C
:10398800DB07E1D50A2DDFD121003000FFF796FFD4
:103998000028D9D0D6E700002D4B70B5050018686F
:1039A8000C00002804D0036A002B01D1FFF728FA85
:1039B8000C23E25E130723D4D30607D409232B6014
:1039C800402301201343A38140423AE0520713D514
:1039D800616B002908D023004433994202D02800A3
:1039E800FFF71AFB002363632422A3899343A3816F
:1039F80000236360236923600823A2891343A381FA
:103A08002369002B0BD1A0218022A3898900920071
:103A18000B40934203D02100280000F063F80C23E8
:103A2800E25E012113000B400A420BD00023A36081
:103A380063695B42A36100202369834201D11306B5
:103A4800BED470BD910700D46369A360F3E7C04694
:103A580018000020002370B5064D040008002B60F4
:103A680000F0CEF8431C03D12B68002B00D0236054
:103A780070BDC046E0030020C9B28218904201D14F
:103A88000020704703788B42FBD00130F6E7000036
:103A980070B50E001D000E23C95E140096B00029F3
:103AA8000CDAB2898023110019401A4214D18023FC
:103AB800DB0000202960236016B070BD6A4600F064
:103AC80053F80028EDDBF02301991B021940044B41
:103AD800C9184B425941EAE700214023E9E7C046AB
:103AE80000E0FFFFF0B502268B8905000C0085B0C9
:103AF800334207D0230047332360236101236361E6
:103B080005B0F0BD03AB02AAFFF7C2FF029F019008
:103B180039002800FFF7ECFA002808D10C22A35E30
:103B28009A05EDD4032293431E43A681E2E780233E
:103B3800A28920601343A381039B20616761002B46
:103B48000CD028000E23E15E00F020F8002805D0F4
:103B58000323A2899A43023B1343A381A389019AB1
:103B68001343A381CCE70000002370B5064D040081
:103B7800080011002B6000F023F8431C03D12B68C8
:103B8800002B00D0236070BDE0030020002370B537
:103B9800064D040008002B6000F01AF8431C03D1FE
:103BA8002B68002B00D0236070BDC046E0030020C6
:103BB80058220120014B40421A607047E003002060
:103BC80058220120014B40421A607047E003002050
:103BD8005822024B00201A607047C046E0030020BC
:103BE80058220120014B40421A607047E003002030
:103BF80058220120014B40421A607047E003002020
:103C0800044A03001068002802D0C31813607047E4
:103C18000148FAE7F0030020F803002070B50022FD
:103C28000C4B04000D00FCF7F7FB002804D1200022
:103C3800290000F0AFFE70BD064B002220002900CD
:103C480000F026FB00F0A6FE80231B069C4660447D
:103C5800F1E7C0460000E041F0B5DE46454657466C
:103C68004E46E0B587B0009201930B031B0B9B46B1
:103C7800CA0F4B00040080465B0D029200D16AE136
:103C8800D44A934200D18CE15946420FC9000A43F5
:103C9800802109041143C2009046CF4A89469246C2
:103CA8009A44002300240393009E019F3B031B0BAF
:103CB8009B467B0030005B0DFD0F002B00D128E1F7
:103CC800C44A934200D177E15946720FC9000A43AA
:103CD8008021090411438B46BF49F2008C465146A6
:103CE8006344CB1A9A460023029E6E400F2C27D8B5
:103CF800BA49A40009598F46CB464246029E039B07
:103D0800022B16D0032B00D1A9E2012B00D0DFE053
:103D180000220023002490461B052343F607334363
:103D28004046190007B0F0BCBB46B246A946A046BB
:103D3800F0BD002200249046A64BEDE72E00DFE7F9
:103D4800CB4500D2D8E100D1D3E101235B429C46A8
:103D5800444648460027E2445B46150E1B021D43B5
:103D6800190C2B04120200951D0C91460291039523
:103D7800FCF72EFA02006A430B04210C8046194313
:103D88008A4209D9009D0123AC465B4261449C46A6
:103D9800E0448D4200D8FFE1881A0299FCF718FA2E
:103DA800039A240442430904240C03000C43A2424E
:103DB80006D90099013B8C466444A14200D8E5E14C
:103DC800A01A424612041A4393464B4659461B0C06
:103DD8001D0004930B0449460904090C0C001B0C34
:103DE8005C43120C6B43884651436A43250CAC462E
:103DF8005B186344994203D9802149028C46624486
:103E0800190C24041B04240C8A181C19904202D390
:103E180016D1A74214D25B46009D013B4F4405933F
:103E28004F459B41AC465B426344C018854200D372
:103E3800A5E1824200D9F9E100D1F4E1059B9B4656
:103E48003C1BA742BF41009D801A7F42C01B854290
:103E580000D1D4E10299FCF7BBF9039A0B04424361
:103E6800210C070019438A4200D97CE1881A02997B
:103E7800FCF7AEF9039A240442430904240C030016
:103E88000C43A24200D961E14146A41A3A041A43FC
:103E9800049D13041B0C594347466B439C46100C66
:103EA80047430B0CBC44634468439F4203D98025B5
:103EB8006D02AC4660441F0C09041B04090C3F1832
:103EC8005B18BC4200D206E100D101E101231A438C
:103ED800434B5344002B00DCB2E0510700D09BE178
:103EE8005946C90106D559463E4B194080238B4691
:103EF800DB0053443C498B4200DD1AE75946D2089F
:103F0800490711435A465B0554028846240B5B0D4A
:103F180002E75A46009B1A4300D182E05B46002B19
:103F280000D104E15846FCF781FA020003000B3A7D
:103F38001D27009EBA1A19005846D64008398840ED
:103F4800320002439346009A8A40284953448A46DD
:103F58009A440023C8E65B46034399465AD05B4619
:103F6800002B00D1D1E05846FCF760FA0B235B42E6
:103F78009C460200844466461D239B1B26001100B4
:103F88005846DE40083988403300034399462300E9
:103F98008B409846164B00249B1A9A46002303939D
:103FA80082E65A46024391462ED100229A460223BF
:103FB80090460824039377E65A46009B1A431BD180
:103FC80002231C430B4B9C460023E2449B460233CE
:103FD8008AE6C046FF07000001FCFFFFF84D000815
:103FE800FF030000FFFFFFFEFE070000F3030000D1
:103FF8000DFCFFFF01F8FFFF03231C439F4B32001A
:104008009C460323E2446FE69A460323D9460C24D0
:10401800039349E6002398469A4601330424039300
:1040280042E601231C4300239B4601335CE6002340
:10403800802498460026924B24036DE601225242C2
:104048000121C91A382900DD62E61F2900DCABE02E
:104058001F204042C31A5846D8400300202904D0E4
:1040680058468849514488400243511E8A411A43A0
:10407800072319000024114013420CD00F231340CA
:10408800042B00D1F8E0111D91429B410A005B42CC
:1040980059075B021C0BD2080A43904600233BE6F3
:1040A80080244B462403234209D05B46234206D191
:1040B8001C4324032E009046714B240B2CE68024CD
:1040C8004B4624031C432403029E6D4B240B23E61A
:1040D800002B00D1FCE60098511E844664448442BB
:1040E80000D284E0BC4200D2ADE000D1C0E00A00BA
:1040F800ECE6424500D928E64B46DC07580843461B
:104108005B081C434346DF0726E6FCF78FF91523B7
:104118009C4684440200634620321C2B00DC2AE7BC
:1041280023000838834099460023984632E7FCF775
:104138007DF902000300153220331C2A00DCF7E663
:1041480000990838814000228B46FEE60099013B21
:104158008C466444A14200D996E6A24200D893E670
:10416800831E644490E6AC466144013F8D4200D909
:104178007CE68A4200D879E6871E614476E6854265
:1041880000D05BE6B94500D958E652E6A24200D80D
:1041980016E6831E644413E68A4200D8FCE5AC4662
:1041A800831E98466144F7E537481400504482401E
:1041B8005B4617008340CC407A1E974123433B431C
:1041C8001A005B46CB40510709D00F211140042942
:1041D80005D0111D9142924152429B180A001902C2
:1041E80000D455E7002201230024904694E50A00F4
:1041F800BC4200D06AE64B4500D067E668E6234B30
:104208005344002B00DC19E7012149420A1D8A4268
:10421800894149428B4463E60F211140042900D1AA
:104228005EE61100F2E7BC4200D807E602235B42D3
:104238009C4600994F444F459B41E3448C465B4262
:104248006344C018FCE54946009D4800484589413B
:10425800AC46494261448146023A6418C8E7802462
:104268005B4624031C4324039046054B240B53E56B
:104278009945E8D30A00BEE7002309E701F8FFFFE4
:10428800FF0700003E0400001E040000FF030000BA
:10429800F0B557464E464546DE46E0B585B0009037
:1042A80001910C034F00CE0F610A009CB046640FC9
:1042B8000C43009900920193C80019035B005B0D41
:1042C8009946019B490ADB0F9C46009B7F0D5B0FBB
:1042D8000B430293009B0390D900C54B8A4699452E
:1042E80000D1D8E00125AB4665465A4655404A46B6
:1042F800BA1AAC469346AE4200D184E0002A00DCEC
:104308001DE34A46002A00D1E0E0B94B9F4200D1A4
:10431800A3E15A460125382A1CDC8022029B12049C
:10432800134302935A461F2A00DDE0E15B46202230
:10433800029DD21A9540A9460D009140DD400A0021
:104348002B004D46511E8A411D435B461543029A78
:10435800DA40A41A451BA84280414042241A23028D
:1043680000D43FE16402640A002C00D146E1200039
:10437800FCF75CF80300083B20212800CA1AD0404B
:104388009C4002009D4022439F4200DD75E1D81BFE
:104398000130091A2C008D40C4406B1E9D4113004A
:1043A800C2408B402543002714001D436B0709D0EA
:1043B8000F232B40042B05D02B1DAB42AD416D4282
:1043C80064191D00230200D43AE1894A0137974253
:1043D80000D103E1012643468649ED0821404A07FA
:1043E8002A437C054D022D0B640D1E4024052C43E9
:1043F800F60734431000210005B0F0BCBB46B246B6
:10440800A946A046F0BD002A00DCABE24A46002AD5
:1044180000D0D5E0029A0A4300D12AE101225B4686
:1044280052425A44012B00D1D3E1714B9B4500D134
:1044380043E20125382A17DC93465B461F2B00DD33
:10444800DEE12022D21A029B5D46934099460B007A
:1044580091400A00EB404D46511E8A411D435B4680
:104468001543029ADA40A4182D188542804140422B
:104478002418230200D4B5E05D4B01379F4200D1D8
:10448800ACE001215B4B6A081C4029400A43E50760
:10449800154364088AE7029A0A432ED0664532D04B
:1044A8004F4568D0002F00D1DCE06646029BC90862
:1044B8005A070A43DC081300234300D13BE2802556
:1044C8002D0325432D034A4C2D0B8FE7029A0A43EF
:1044D80000D1CEE0012252425A4494465A46012A5B
:1044E80000D184E1424B9B4500D1B6E063460125EB
:1044F800382B00DD2EE7E34614E7654601225540D8
:10450800AC466645CCD14F4500D1BAE0002F00D06B
:1045180028E1CB462200024300D1D3E101235B42CC
:104528005B449C465B46012B00D1EDE1304A934544
:1045380000D117E163460127382B14DC63461F2B93
:1045480000DDCCE1070020222500D21ADF40DC4044
:10455800029B90409C469540A444421E904163466D
:104568002F43074302937D188D429241029B52428A
:104578004F46D4187DE7204D7A1C2A4200D09FE090
:1045880022000243002F00D015E1002A00D188E163
:10459800029B0B4300D148E1029B451AE21AA8424C
:1045A8009B415B42D31A1A0200D4B6E10D1AA94204
:1045B8009241029B52421C1B6646E046A41AF5E64D
:1045C8000B4B9F4249D05A460125382A00DD4BE75C
:1045D8008022029B1204134302932EE73C0000251D
:1045E800002203E707232B40002B00D0E0E664E01D
:1045F800FF070000FFFF7FFFFE0700002800FBF712
:1046080015FF030018331F2B00DCB5E62A00083815
:1046180082409F4200DDABE0DB1B581C1F2800DCFA
:1046280085E115001F3BDD40202805D040231B1ADB
:104638009A40531E9A411543072300272B40D3E77E
:10464800EA0863071A43CC4BE4089F4200D132E7DB
:104658002403250B7C05640DC8E66207C0080243E5
:10466800E40828E7CB462200024351D16646029C63
:104678000391039B5F46DA08E3E7C04CFF1A144036
:1046880094E6BF4D7A1C2A4278D122000243002FBB
:1046980066D1002A00D118E1029B0B4300D1C4E087
:1046A800029B45189C468542804164444042241838
:1046B800230202D5B14B01371C40BB460395D8E70E
:1046C800451AA842924152429146029BE31A1A00A7
:1046D8004B46D21A130091461A0262D44A464C46F7
:1046E8002A4300D040E60026002400257EE65B46EB
:1046F800029D203AD540202B05D04022D21A029B99
:10470800934019438A4653465A1E93411D4321E656
:104718005B465E1E012B00D1B8E0974A934500D155
:10472800C3E6E0460125382E11DC1F2E00DD9CE093
:1047380020222500921B070090409540F740F44046
:10474800421E9041029B3D431B1B054302934D1B98
:10475800A9429241029B524266464F469C1AFEE588
:10476800002A67D1029BC9085A070A43DC08A2E657
:10477800824CFF1A14406207E40869E77E4DAA429A
:1047880000D1BDE0411881428041029B4042E318BC
:104798001B18DD075C08072349080D4317002B4049
:1047A80022E70D1AA9429241029B52421C1B6646FF
:1047B800E046A41AD8E5002A3CD1029803000B432E
:1047C8001A1E00D1AFE0C908420766460A43C4086A
:1047D80071E6029B45189C468542804164444042EC
:1047E80024180127230200D4FCE6022749E6451ACB
:1047F800A8428041029B4042E41A0127241AAEE5F0
:10480800029D5A462B00203AD3409C465B46202BFB
:1048180005D04022D21A2B00934019438A465546A8
:104828006B1E9D4163461D431EE66207C008024396
:10483800E4080DE7029DC0082B000B434BD062072C
:1048480010438022E4081203144208D02B00ED081C
:10485800154204D166462C00C8085B071843420F6E
:10486800C000C0085207024325E632002700203A5C
:10487800D740202E05D04022921B944025000543A6
:104888000395039D6A1E95413D4360E70D1AA942B1
:104898009241029B52421C1B6646E0460127A41A1D
:1048A8005DE5029803000B431A1E00D11BE7C908F7
:1048B800420766460A43C408CAE66207C0080243BC
:1048C800E408F8E5029C0391D3E6029BC9085A075D
:1048D8000A43DC08BCE662070243E408EBE56246EB
:1048E8002700203AD740202B05D04022D21A9440E6
:1048F800250005430395039D6A1E95412F4332E623
:1049080014000025002271E5029B45189C468D4243
:10491800924164445242A41863E71A001C002A43D7
:1049280000D0CAE6DFE6802400262403C7E520215C
:104938000025091A33E5002200250F4C56E5002A08
:1049480000D118E64B46DE1BB346002F00D18AE69D
:10495800382E04DC80221204A8461443E5E6A84653
:104968000125F4E6002A00D18BE64B46DB1B9C466A
:10497800002F07D19B46CDE5FF070000FFFF7FFF13
:10498800FE0700000127382B00DDECE58022120429
:104998001443D3E50B00020070B5164D0C0382B02A
:1049A8004900002000920193240B490DDE0FA94213
:1049B80004DD1148814203DD104BF01802B070BDD0
:1049C8008020400320430E4C641A1F2C08DD0D4B39
:1049D8005B1AD84003005842002EEFD11800EDE7CB
:1049E800094B009A9C46030061448B40E240134304
:1049F800F1E7C046FE0300001D040000FFFFFF7F33
:104A08003304000013040000EDFBFFFF70B500281D
:104A180016D0C317C5185D40C40F2800FBF706FD64
:104A2800114B1B1A0A2816DC02002E00153296407C
:104A38000B22121AD5405B052D032D0B5B0D03E0ED
:104A480000240023002500261B052B43E4072343ED
:104A58003000190070BD0B3885405B052D0300261A
:104A68002D0B5B0DF0E7C0461E04000010B5041EB8
:104A780010D0FBF7DBFC0F4B1B1A0A2811DC0B22AA
:104A88002100121AD14015300A035B058440120B2D
:104A98005B0D01E0002300221B05134320001900D1
:104AA80010BD22000B3882405B0512030024120B54
:104AB8005B0DF1E71E040000F0B55746DE464E4692
:104AC8004546E0B50D000400E80F83460903D80FFA
:104AD800090B824619488C461F0369005E00490D80
:104AE8003F0B760D814218D086420FD00120B1428B
:104AF8000DD1BC450BD1944209D1D3451CD0002916
:104B080005D160462043431E984100E00120F0BCD7
:104B1800BB46B246A946A046F0BD01208E42F6D15A
:104B2800614639430F0017432743F0D15B4652468D
:104B3800981A431E9841EAE70020E8E7FF070000BB
:104B4800F0B557464E464546DE46E0B50D000F0324
:104B5800390B83B00400804601915800E90F314FAA
:104B6800400D8C466E00190382469146760D090B5E
:104B7800D80FBE421FD0BA450FD0002E2FD15546B0
:104B8800019E3443002D27D10A433AD0002C45D149
:104B980000281AD10120404217E011433BD1002ED2
:104BA80002D1019F2743F3D0844509D16346002BE6
:104BB800F0D0604609E0019F27432CD1B24524D0AC
:104BC80063460220013B1840013803B0F0BCBB46E5
:104BD800B246A946A046F0BD002CD9D0E4E7544619
:104BE800002CEDD08445EBD15645E9DCDEDB019B9A
:104BF8008B42E5D8DAD1C845E2D80020C845E4D2CE
:104C0800D4E70020002CE0D0DAE7114303D1844533
:104C1800D6D10020D9E702204042D6E78445E6D025
:104C2800CEE7C046FF070000F0B557464E4645465A
:104C3800DE46E0B50D000F0304008046E80F390B8F
:104C4800844683B05800304F400D01911E0369001F
:104C580082469146490D360BD80FB94220D0BA4545
:104C68000FD000292BD101990C435146002937D187
:104C7800324338D0002C44D1002819D101204042B9
:104C880016E0164313D1002902D1019F2743F3D020
:104C9800844520D063460220013B1840013807E0D4
:104CA800019F274303D18A45F4D116431FD0022020
:104CB80003B0F0BCBB46B246A946A046F0BD544678
:104CC800002CE7D08445E5D15145E3DC03DB019BAB
:104CD800B342DFD80FD06346002BCFD06046E7E75A
:104CE800002CC9D0D4E70020002CE1D0D2E78445BD
:104CF800D0D10020DCE7C845CCD80020C845D7D2A1
:104D0800E9E78445E3D0C5E7FF070000F8B5C046EA
:104D1800F8BC08BC9E467047F8B5C046F8BC08BC4D
:044D28009E467047EC
:104D2C004144433A256C642C256C640D0A00000048
:104D3C00010002000400060008000A000C0010002C
:104D4C002000400080000001080402040801010159
:104D5C000101010307010000000000000000000039
:104D6C000000000000000000010000000200000034
:104D7C000300000004000000000000000000000020
:104D8C000000000000000000000000000000000017
:104D9C000000000000000000010000000200000004
:104DAC0003000000040000000600000007000000E3
:104DBC000800000009000000232D302B2000686C37
:104DCC004C00656667454647003031323334353622
:104DDC00373839414243444546003031323334355B
:104DEC00363738396162636465660000483D0008F7
:104DFC003A3D0008183D0008443D0008183D0008E5
:104E0C0036400008183D0008443D00083A3D0008B3
:104E1C003A3D000836400008443D0008003D0008BB
:0C4E2C00003D0008003D0008A840000800
:044E3800E504000885
:044E3C00B9040008AD
:104E400001000000040000000024F4000000000045
:104E500003000000A40200201C000020000000004D
:104E6000A40200200C0300207403002000000000B6
:104E70000000000000000000000000000000000032
:104E80000000000000000000000000000000000022
:104E90000000000000000000000000000000000012
:084EA00000000000000000000A
:040000050800299531
:00000001FF
