:020000040800F2
:1000000000200020012A0008910900089309000837
:1000100000000000000000000000000000000000E0
:10002000000000000000000000000000950900082A
:10003000000000000000000097090008990900086E
:10004000512A000800000000512A0008512A000827
:10005000512A0008512A0008512A0008512A000894
:1000600000000000A1090008512A0008512A0008D8
:10007000B1090008512A0008512A000800000000B8
:10008000512A00080000000000000000512A00086A
:1000900000000000512A0008512A0008512A0008D7
:1000A000512A0008512A0008512A0008512A000844
:0800B000512A000800000000C5
:1000B8000023C25C0133002AFBD1581E70470000A0
:1000C80002B4714649084900095C49008E4402BCE3
:1000D8007047C04603B47146490840004900095EAC
:1000E80049008E4403BC7047002243088B4274D3F6
:1000F80003098B425FD3030A8B4244D3030B8B4221
:1001080028D3030C8B420DD3FF22090212BA030C29
:100118008B4202D31212090265D0030B8B4219D30A
:1001280000E0090AC30B8B4201D3CB03C01A52412A
:10013800830B8B4201D38B03C01A5241430B8B4272
:1001480001D34B03C01A5241030B8B4201D30B035B
:10015800C01A5241C30A8B4201D3CB02C01A524182
:10016800830A8B4201D38B02C01A5241430A8B4245
:1001780001D34B02C01A5241030A8B4201D30B022E
:10018800C01A5241CDD2C3098B4201D3CB01C01A48
:10019800524183098B4201D38B01C01A5241430952
:1001A8008B4201D34B01C01A524103098B4201D340
:1001B8000B01C01A5241C3088B4201D3CB00C01AAD
:1001C800524183088B4201D38B00C01A5241430825
:1001D8008B4201D34B00C01A5241411A00D201464A
:1001E800524110467047FFE701B5002000F0F0F8D3
:1001F80002BDC0460029F7D076E7704703460B4397
:100208007FD4002243088B4274D303098B425FD307
:10021800030A8B4244D3030B8B4228D3030C8B4233
:100228000DD3FF22090212BA030C8B4202D3121219
:10023800090265D0030B8B4219D300E0090AC30BEE
:100248008B4201D3CB03C01A5241830B8B4201D39B
:100258008B03C01A5241430B8B4201D34B03C01A84
:100268005241030B8B4201D30B03C01A5241C30AFC
:100278008B4201D3CB02C01A5241830A8B4201D36D
:100288008B02C01A5241430A8B4201D34B02C01A57
:100298005241030A8B4201D30B02C01A5241CDD2FC
:1002A800C3098B4201D3CB01C01A524183098B4247
:1002B80001D38B01C01A524143098B4201D34B0130
:1002C800C01A524103098B4201D30B01C01A524193
:1002D800C3088B4201D3CB00C01A524183088B421A
:1002E80001D38B00C01A524143088B4201D34B0003
:1002F800C01A5241411A00D2014652411046704775
:100308005DE0CA0F00D04942031000D34042534079
:1003180000229C4603098B422DD3030A8B4212D339
:10032800FC22890112BA030A8B420CD3890192116B
:100338008B4208D3890192118B4204D389013AD0A8
:10034800921100E08909C3098B4201D3CB01C01A7D
:10035800524183098B4201D38B01C01A5241430990
:100368008B4201D34B01C01A524103098B4201D37E
:100378000B01C01A5241C3088B4201D3CB00C01AEB
:10038800524183088B4201D38B00C01A5241D9D203
:1003980043088B4201D34B00C01A5241411A00D284
:1003A8000146634652415B10104601D34042002B80
:1003B80000D54942704763465B1000D3404201B5FF
:1003C800002000F005F802BD0029F8D016E77047B4
:1003D8007047C0468446100062468C461900634642
:1003E80000E0C0461FB507F03BFA002801D4002101
:1003F800C8421FBD10B507F07BF94042013010BD5F
:1004080010B507F02DFA002801DB002010BD0120EF
:1004180010BDC04610B507F023FA002801DD002002
:1004280010BD012010BDC04610B507F0A5F9002881
:1004380001DC002010BD012010BDC04610B507F03A
:100448009BF9002801DA002010BD012010BDC0462C
:100458001C2101231B04984201D3000C10391B0AEC
:10046800984201D3000A08391B09984201D30009B0
:10047800043902A2105C40187047C0460403020207
:100488000101010100000000000000000448054BC4
:1004980010B5834203D0044B002B00D0984710BD01
:1004A800E8010020E8010020000000000648074994
:1004B800091A8B10C90FC91810B5491003D0044B7D
:1004C800002B00D0984710BDE8010020E80100206B
:1004D8000000000010B5074C2378002B09D1FFF766
:1004E800D5FF054B002B02D0044800E000BF0123D4
:1004F800237010BDE801002000000000F488000807
:10050800054B10B5002B03D00449054800E000BF97
:10051800FFF7CCFF10BDC04600000000EC01002032
:10052800F488000810B51549154B986802F050FA80
:1005380000281DD1134B986808F0D8F8124A134BBD
:1005480007F0C4FC124A134B06F0B6FD02000B007C
:100558001148124905F0C6F908F036F9104B186031
:1005680008F0EAF802000B000E4803F033F910BD5A
:10057800802189010C4801F06FFCDBE70C020020A8
:1005880014020020040200203333333333699F40C0
:10059800F4FDD478E906574090F7AA9509BF0540BD
:1005A80024020020108900080008005072B6FEE7F7
:1005B80000B593B03422002105A803F067F9102292
:1005C800002101A803F062F98020800001F0ACFD51
:1005D8000123059380235B02069302230C930133C6
:1005E8000D9300230E9310330F9380239B021093D7
:1005F80080239B05119305A800F022FF00280ED147
:1006080007230193053B02930023039304930221DC
:1006180001A801F0C3F9002803D113B000BDFFF70A
:10062800C5FFFFF7C3FF000010B501F033FEFFF769
:10063800BFFF00F015F800F007F900F049F800F0E6
:100648001BF9054C200000F051FE0449042220004B
:1006580000F0A4FDFEE7C04684020020140200203A
:1006680070B588B01422002103A803F00FF9164BC7
:10067800596B042211435963596B0A400092009A3E
:10068800596B202211435963596B0A400192019A10
:100698005A6B012422435A635B6B23400293029BEB
:1006A8008026B601094D01223100280001F0CEFB59
:1006B8000396049400230593069303A9280001F0E8
:1006C8000BFB08B070BDC046001002400008005087
:1006D80000B585B00C22002101A803F0D7F82948FD
:1006E800294B03608023DB05436000238360C360DC
:1006F8008022120602610422426103764376033A9D
:100708008276C261436283622C21425403630532BC
:10071800426336328354C36400F066F9002822D15C
:10072800012301930293174801A900F081FB0028D7
:100738001CD1164B0193134801A900F079FB00283E
:1007480017D1134B01930F4801A900F071FB002842
:1007580012D1104B01930B4801A900F069FB002846
:100768000DD105B000BDFFF721FFD9E7FFF71EFF48
:10077800DFE7FFF71BFFE4E7FFF718FFE9E7FFF7FD
:1007880015FFEEE784020020002401400200000467
:1007980004000008001000B010B588B0040014224E
:1007A800002103A803F072F82268234B9A4201D073
:1007B80008B010BD214B1A6C802149030A431A6402
:1007C8001A6C0A400192019A596B0122114359632C
:1007D8005B6B1A400292029B07230393043B04932A
:1007E800A02003A9C00501F077FA1548154B03604E
:1007F8000523436000238360C36080220261813245
:10080800FF3242618022120182612022C2610362AA
:1008180001F07EFB00280BD1094B23659C62002266
:1008280000210C2001F0F6FC0C2001F0F7FCBFE7DA
:10083800FFF7BCFEF0E7C04600240140001002406C
:10084800280200200800024000B583B0094A916BD5
:10085800012319439163926B13400193019B00227A
:100868000021092001F0D6FC092001F0D7FC03B0D3
:1008780000BDC0460010024010B51948194B03606E
:10088800194B436000238360C36003610C224261FB
:100898008361C36103624362836201F089FF0028B8
:1008A80011D10F48002102F003F800280ED10C489E
:1008B800002102F023F800280BD1094801F0D8FFE5
:1008C800002809D110BDFFF771FEEAE7FFF76EFEB9
:1008D800EDE7FFF76BFEF0E7FFF768FEF2E7C046CB
:1008E800E8020020003801400094110010B58EB0D5
:1008F80004001422002109A802F0C8FF18220021D0
:1009080003A802F0C3FF2268174B9A4201D00EB029
:1009180010BD0123039303A801F020F9002820D17A
:10092800124B1A6C8021C9010A431A641A6C0A40D6
:100938000192019A596B0122114359635B6B134071
:100948000293029BC023DB00099302230A9300232E
:100958000B930C930D92A02009A9C00501F0BCF9D6
:10096800D5E7FFF723FEDBE700380140001002401F
:1009780010B51400012392B202485B4201F066FEF2
:10098800200010BDE8020020FEE7FEE77047704730
:1009980010B501F093FC10BD10B5024801F05EFBE4
:1009A80010BDC0462802002010B5024800F094F996
:1009B80010BDC0468402002082B00A4B196C012287
:1009C80011431964196C0A400092009ADA6B80216D
:1009D80049050A43DA63DB6B0B400193019B02B0C4
:1009E8007047C0460010024030B583B004000023B1
:1009F8000193002800D106E1836D002B13D02368F2
:100A08009A68D2001CD49968804A11408022520505
:100A18000A439A607E4B18687E49FFF765FB0130F0
:100A28004000019009E0FFF7B7FE0023E365542278
:100A3800A354E4E7019B013B0193019B002BF9D1EF
:100A480023689A68D20000D59DE0A26D10210A4360
:100A5800A265E26D0F390A43E26501209A68042114
:100A68000D001540114200D00125A26DD20600D517
:100A7800C2E0002D00D0BFE0A26D67490A400631F0
:100A8800FF310A43A2659A68D20752D4A268217E30
:100A980089030A43617EC9030A43A57E69030A43A1
:100AA800216B002901D0802149010A43E1680A43EA
:100AB8002169002969DB802189030A432C21615CB3
:100AC80049000A432021615C012961D0616A00293B
:100AD80005D0E0256D002940A56A29430A43D96855
:100AE8004E4D29400A43DA6063689B0F9B07E26C0E
:100AF8001A433C21615C012959D021680B69484D92
:100B08002B4013430B616368C0221206934210D036
:100B18008022D20593420CD080221206934208D03C
:100B280040490A68404D2A40F025AD032B40134345
:100B38000B602168636B4A690725AA4313434B611D
:100B48002168A26B4B696935AB43120113434B61B2
:100B58002369002B35D12268916A103B0B439362BD
:100B680023685A6907231340626B9A423BD0A36DEE
:100B780012229343023A1343A365E36D0F3A1343DA
:100B8800E36501203DE0002068E74900490894E753
:100B9800002D03D1802149020A4397E7A16D202542
:100BA8002943A165E16D1F3D2943E1658EE7216C6D
:100BB8000B43616C0B43A16C0B43134301221A4393
:100BC8009BE7802292039342CAD121688B6AE3692A
:100BD800013B9B001C221A4010235B429340226E6B
:100BE80013438B62BCE70023E365A36D03229343A1
:100BF800023A1343A36504E0A36D10221343A365CF
:100C0800012003B030BD0120FBE7C046E8FFFF6FBD
:100C180008000020400D0300FDFEFFFF0102FEFF5B
:100C280002FCFF1F08270140FFFFC3FF704710B5F4
:100C3800806AFFF7FBFF10BD7047704710B5806AE8
:100C4800836D402213438365C36D3C3A1343C365E8
:100C5800FFF7F3FF10BD000010B50300806A826D36
:100C6800502111422AD1826D80239B001343836552
:100C78000368D968C0221201114213D1827E002A6A
:100C880010D11A6812070DD59A6852070DD45A6800
:100C98000C218A435A60836D0E4A13400432FF3296
:100CA80013438365FFF73EFC10BD836D2022134379
:100CB8008365C36D1F3A1343C365F3E7826DD2069C
:100CC80004D4026D526B18009047EDE7FFF7B5FFAB
:100CD800EAE7C046FEFEFFFF70B5040003681D6822
:100CE8005E68AB070FD5B3070DD5836DDB0604D45B
:100CF800826D80231B0113438365200000F09EFB57
:100D0800236802221A606B0701D5730703D42B07E7
:100D180029D5330727D5A36DDB0604D4A26D80231C
:100D28009B001343A3652368D968C02212011142AE
:100D380013D1A27E002A10D11A6812070DD59A681D
:100D480052073BD45A680C218A435A60A36D374A2C
:100D580013400432FF321343A3652000FFF7E2FB80
:100D680023680C221A602B0601D533062FD4EB0515
:100D780001D5F30537D4AB0501D5B30540D4EB064F
:100D880017D5F30615D5236B002B03D02368DB6832
:100D98009B070BD0A26D8023DB001343A365E36D93
:100DA80002221343E3652000FFF747FF2368102260
:100DB8001A60AD0401D5B6042FD470BDA36D2022EE
:100DC8001343A365E36D1F3A1343E365C5E7A26DBB
:100DD80080235B021343A3652000FFF72DFF2368E0
:100DE80080221A60C3E7A26D80239B021343A36588
:100DF800200000F021FB2368802252001A60BAE725
:100E0800A26D8023DB021343A365200000F015FBCD
:100E18002368802292001A60B1E7200000F00FFBDF
:100E28002368802292011A60C7E7C046FEFEFFFFD2
:100E3800F0B583B004000023019305695433C35C03
:100E4800012B00D12FE154230122C254006883688A
:100E5800033216001E401A4209D0A36D1C321343F8
:100E6800A365012054230022E25403B0F0BD4B686F
:100E7800022B00D1D5E080221206954225D08B4A5C
:100E8800954222D0226E1F271F400F25BD40AA433E
:100E98000B685D032FD19B0E1F261E40BE403243B8
:100EA80022664D68AB080133E269934213D80E6895
:100EB800826A1F231D40103B1F00AF40BA43B60E85
:100EC8003340AB401343836205E00B68826A5B03DF
:100ED8005B0B1343836220680B688D6842691B02B1
:100EE8009A432B40724D2B40134343610B68002BF0
:100EF8004FDB0020B6E7DD07D0D49D0727D45D0778
:100F080027D41D0727D4DD0627D49D0627D45D06E0
:100F180027D41D0627D4DD0527D49D0527D45D05D4
:100F280027D41D0527D4DD0427D49D0427D45D04C8
:100F380027D41D0427D4DD0327D49D0327D4802577
:100F4800ED021E002E402B42A8D01226A6E701264D
:100F5800A4E70226A2E70326A0E704269EE70526C3
:100F68009CE706269AE7072698E7082696E70926C3
:100F780094E70A2692E70B2690E70C268EE70D26C3
:100F88008CE70E268AE70F2688E7102686E71126C3
:100F980084E7484A1168E02252040A4046488342DE
:100FA80007D04648834222D0454883422CD00020AF
:100FB80058E70802F5D480231B0413433D490A6807
:100FC8004048024013430B603F4B18683F49FFF706
:100FD8008BF8013043001B189B00019302E0019B32
:100FE800013B0193019B002BF9D100203AE7C8018E
:100FF800DAD480235B0413432E490A68314802403F
:1010080013430B6000202DE749024AD48023DB03F9
:10101800134328490A682B48024013430B600020F9
:1010280020E780231B069D4202D0204B9D4205D11C
:101038000B68826A5B035B0B9A4382620B68002B26
:1010480001DB00200EE71B4A12681B498B4207D0C0
:101058001A498B420FD01A498B4217D0002001E75A
:10106800A0235B041A4013490B68164803401A432F
:101078000A600020F6E6C0231B041A400D490B68DD
:10108800104803401A430A600020EBE6C0235B04C3
:101098001A4008490B680B4803401A430A600020AD
:1010A800E0E60020DEE60220DFE6C046040000801D
:1010B80000FFFF0708270140001000B0004000B8FB
:1010C800002000B4FFFF3FFE08000020400D030091
:1010D80030B583B004000023019303689A68D207EF
:1010E8004FD49968284A114211D19A6827490A4071
:1010F80001210A439A60264B1B681B0217D5254B12
:1011080018682549FEF7F0FF013001900CE0836D67
:10111800102213438365C36D0F3A1343C36501203F
:1011280030E0019B013B0193019B002BF9D1637EC9
:10113800012B01D1002025E001F0CCF8050023683F
:101148001A68D2071BD49A68D20705D49A680F493F
:101158000A4001210A439A6001F0BCF8401B0228AA
:10116800EDD923681B68DB07E9D4A36D102213436C
:10117800A365E36D0F3A1343E365012002E0002005
:1011880000E0002003B030BD17000080E8FFFF7FBB
:101198000827014008000020400D030070B5040036
:1011A8000D001600026893685B0747D45423C35C9C
:1011B800012B45D0012354214354D1680B420DD152
:1011C8009368DB0705D593681E490B4002210B4342
:1011D80093602268D36801210B43D3602000FFF796
:1011E80077FF00282BD1A26D174B1A4080235B0094
:1011F8001343A3650023E365226D1449D162226D70
:1012080013491163226D1349516322681C2111602F
:101218005422A354226853680C390B435360216845
:101228004031206D33002A0000F0CAFE226893681E
:1012380004490B4004210B43936000E0022070BD79
:101248000220FCE7E8FFFF7FFEF0FFFF610C0008CB
:10125800370C0008450C000870B5040003689A684C
:10126800022108001040114200D001209A68D207DC
:1012780035D5002835D1996805220A40012A09D0B8
:10128800A36D10221343A365E36D0F3A1343E3657F
:10129800012025E09A6814490A4002210A439A600D
:1012A800236803221A6001F015F8050023689B687B
:1012B800DB0712D501F00EF8401B0228F6D9236887
:1012C8009B68DB07F2D5A36D10221343A365E36D7A
:1012D8000F3A1343E365012002E0002000E00020FC
:1012E80070BD0020FCE7C046E8FFFF7FF0B5CE46A2
:1012F800474680B583B00400002301935433C35C90
:10130800012B00D18BE001265423C654FFF7A4FF1C
:10131800050023689A683100114016420CD0A36D6D
:1013280010221343A36554230022E254280003B07B
:10133800C0BCB946B046F0BDA26D3A48024006307E
:10134800FF300243A265DE68374A1640DA6837483C
:101358000240DA60080005E0B4229A587F2313405F
:10136800C018013107291CD82768BA68304B1A40C1
:1013780018331343BB6023689A68002AECDA019B90
:1013880001330193019A2B4B9A42F4D9A36D12228F
:101398009343023A1343A36554230022E2540125E0
:1013A800C4E7FEF7A1FE2268936821490B40012794
:1013B8003B4393602768B4239946FB5898467F239C
:1013C80042469A4310434B46F850226893680B40B4
:1013D80002210B43936000F07DFF070023689A68A1
:1013E800D20709D4DA683243DA60A36D0322934343
:1013F800023A1343A36596E700F06CFFC01B02286E
:10140800ECD923689B68DB07E8D5A36D102213434A
:10141800A365E36D0F3A1343E365012586E70225CB
:1014280084E7C046FDFEFFFF03800000FC7FFFFF4E
:10143800E8FFFF7FFFF10200704770477047704771
:1014480070B582B0041E00D129E20368DB0739D5E4
:10145800C14A916838230B40D16803220A40102BF7
:1014680026D0082B26D063688022520293427FD070
:10147800A022D202934200D181E0B74B1A68B74943
:101488000A401A601A68B6490A401A606368002B55
:1014980000D180E000F01EFF0500AF4B1B689B03E6
:1014A80010D400F017FF401B6428F6D90320F7E199
:1014B800032AD6D1A84B1B689B0303D56368002B6E
:1014C80000D1EFE123689B0731D5A34A91683823FF
:1014D8000B40D16803220A40102B6AD0002B6BD135
:1014E8009D4A1268520503D5E268002A00D1DBE163
:1014F800994842689B490A40616909020A43426067
:10150800002B0DD1036898490B4021690B430360F8
:101518000368DB0A07221A40944BD340944A1360AD
:10152800944B186800F08AFE002800D0BEE12368BA
:101538001B0700D481E0884B9A6838231340182B86
:1015480073D0A369002B00D1B4E0834A136E012144
:101558000B43136600F0BEFE05007F4B1B6E9B0716
:101568006BD400F0B7FE401B0228F6D9032097E1A0
:10157800794A116880235B020B43136086E7764B38
:1015880019688022D2020A431A601968802252021E
:101598000A431A607AE700F09DFE05006E4B1B684F
:1015A8009B038FD500F096FE401B6428F6D90320D4
:1015B80076E1022A92D193E7E368002B22D0664AAB
:1015C800136869490B4021690B4313601168802334
:1015D8005B000B43136000F07DFE05005E4B1B684B
:1015E8005B0506D400F076FE401B0228F6D90320DE
:1015F80056E159494B685B4A13406269120213432A
:101608004B6094E7544A13685B490B40136000F041
:1016180061FE0500504B1B685B0588D500F05AFE3B
:10162800401B0228F6D903203AE14B4B1B6E9B075F
:1016380003D5A369002B00D13AE123685B0700D4E6
:10164800A2E0454B9A6838231340202B45D0424BE3
:10165800DB6BDB004AD4404BDA6B802149050A4337
:10166800DA63DB6B0B400193019B0125434B1B683D
:10167800DB053DD5A368012B4ED0052B52D0364B48
:10168800DA6D01218A43DA65DA6D03318A43DA6556
:10169800A368002B50D000F01DFE06002E4BDB6D1A
:1016A8009B076FD400F016FE801B354B9842F5D986
:1016B8000320F5E0284A136E01218B43136600F0DE
:1016C80009FE0500244B1B6E9B07B6D500F002FEF1
:1016D800401B0228F6D90320E2E01F4BDB6D9B0775
:1016E80052D5A368002B4FD10120D9E00025BDE7D2
:1016F800224A116880235B000B43136000F0EAFD67
:1017080006001E4B1B68DB05B4D400F0E3FD801B0C
:101718000228F6D90320C3E00F4AD36D01210B43F9
:10172800D365B5E70C4BDA6D04210A43DA65DA6D47
:1017380003390A43DA65ABE700F0CCFD0600064B37
:10174800DB6D9B071ED500F0C5FD801B0C4B984236
:10175800F5D90320A4E0C04600100240FFFFFEFFB9
:10176800FFFFFBFFFF80FFFFFFC7FFFF0024F40020
:101778000800002004000020FFFEFFFF007000406A
:1017880088130000012D1ED0E369002B00D191E0E1
:101798004F4A916838220A40102A5ED0022B18D08E
:1017A8004B4A13684B490B40136000F093FD04004B
:1017B800474B1B689B0149D500F08CFD001B022894
:1017C800F6D903206CE0424AD36B43490B40D363FC
:1017D800DAE73F4A13683F490B40136000F07AFD8F
:1017E80005003B4B1B689B0106D500F073FD401BB1
:1017F8000228F6D9032053E0354AD36837491940FF
:10180800236A606A0343A06A00020343E06A034351
:10181800206B03430B43D360116880235B040B43A5
:101828001360D16880235B050B43D36000F052FD41
:101838000400274B1B689B0106D400F04BFD001BDE
:101848000228F6D903202BE0002029E0204AD3689B
:1018580023490B40D360002022E0012B2CD01C4BE5
:10186800DA6803231340216A8B4227D1702313407F
:10187800616A8B4224D1FE21C9011140A36A1B026F
:1018880099421FD1F8239B031340E16A8B421BD175
:10189800520F5207236B9A4218D1002000E0012012
:1018A80002B070BD0120FBE70120F9E70120F7E74E
:1018B8000120F5E70020F3E70120F1E70120EFE739
:1018C8000120EDE70120EBE70120E9E70120E7E748
:1018D80000100240FFFFFFFEFFFFFFEF8C80C11FDB
:1018E800FCFFFEEF10B52A4B9B6838221A4207D13D
:1018F800274B1A68D20A072313402648D84010BD40
:10190800234B9A6838231340082B3BD0204B9A6806
:1019180038231340102B0DD01D4B9A6838231340E1
:10192800202B31D01A4B9A6838231340182B26D015
:101938000020E4E7164AD1680D3B0B40D268120933
:10194800072111400131032B0FD01248FEF7CCFBC1
:101958000F4BDA68120A7F23134058430C4BD9689F
:10196800490F0131FEF7C0FBC9E70B48FEF7BCFB86
:10197800074BDA68120A7F2313405843EEE7FA2030
:10198800C001BCE70448BAE780200002B7E7C046B8
:10199800001002400024F40000127A0070B5040020
:1019A8000D00002800D1AAE0574B1A6807231340FE
:1019B8008B4221D323689A070ED55B0705D5534A76
:1019C8009168E023DB010B439360504A93685049C8
:1019D8000B40A1680B4393602368DB0754D5636809
:1019E800012B20D0022B3BD0002B3FD1474A126855
:1019F80052051CD401206AE0434A136807218B432F
:101A08002B43136000F066FC06003F4B1A6807235F
:101A18001340AB42CED000F05DFC801B3D4A9042A3
:101A2800F3D9032053E0394A1268920369D537493C
:101A38008A680720824313438B6000F04BFC060042
:101A4800324B9B6838221A406368DB009A421BD0ED
:101A580000F040FC801B2F4B9842F1D9032036E060
:101A68002A4A12689201E2D4012030E0032B05D003
:101A7800264AD26D9207DAD4012028E0234A126E52
:101A88009207D4D4012022E01F4B1A680723134081
:101A9800AB421DD823685B0706D51C4A93681E49CC
:101AA8000B40E1680B439360FFF71CFF174B9A68E4
:101AB800120A0F231340194A9B009A581F231340F8
:101AC800D840174B1860174B186800F0B7FB70BD6B
:101AD8000D4A136807218B432B43136000F0FAFB70
:101AE8000600094B1A6807231340AB42D2D000F016
:101AF800F1FB801B074B9842F3D90320E7E701204D
:101B0800E5E70120E3E7C04600200240001002405C
:101B1800FFF0FFFF88130000FF8FFFFF70890008A8
:101B28000800002004000020014B18687047C046D8
:101B38000800002010B5FFF7F7FF064B9A68120B54
:101B480007231340044A9B009A581F231340D84088
:101B580010BDC0460010024050890008F0B583B09F
:101B6800040003689B0362D5534BDB6BDB001ED478
:101B7800514BDA6B802149050A43DA63DB6B0B4072
:101B88000193019B01264D4A116880235B000B439A
:101B9800136000F09FFB0500484B1B68DB0508D469
:101BA80000F098FB401B0228F6D9032502E0002626
:101BB800E9E70025002D23D13F4BD96DC0229200C3
:101BC8000B001340114210D062699A420DD03A4A74
:101BD800D36D3B490B40D06D802149020143D1654B
:101BE800D16D38480140D165D365DB0710D4002D8D
:101BF80006D1314AD36D32490B4061690B43D36535
:101C0800012E15D12C4AD36B2F490B40D3630FE01B
:101C180000F060FB0700284BDB6D9B07E7D400F062
:101C280059FBC01B294B9842F5D90325DFE700254E
:101C38002368DB0706D5204A536D03218B4361686F
:101C48000B43536523689B0606D51B4A536D2049F1
:101C58000B40A1680B43536523685B040BD5164AF8
:101C6800536D9B009B0821690B43536522698023B0
:101C7800DB059A4211D023681B050BD50E4A536D1C
:101C880014490B40E1680B435365E2688023DB018C
:101C98009A4209D0280003B0F0BD074AD1688023D2
:101CA8005B020B43D360E6E7034AD16880235B02FB
:101CB8000B43D360EEE7C0460010024000700040BE
:101CC800FFFCFFFFFFFFFEFFFFFFFFEF8813000091
:101CD800FFCFFFFFFF3FFFFFF0B5002359E0866805
:101CE8005F000324BC40A643CC68BC4034438460F6
:101CF800446894434E683609012232409A40224390
:101D0800426056E0DE080836B600375805321A40F9
:101D180092000F249440A7430C69944022003A4350
:101D2800325059E0032600E00026A64034003C4328
:101D3800424E1832920094513768EA433E00AE434F
:101D48004C68E40201D53E002E433C4C266067688F
:101D58003E0016404C68A40201D53E002E43374C85
:101D680066608426A7593E0016404C68A40301D536
:101D78003E002E43314C8427E6518026A659324036
:101D88004C68E40301D52A0032432C4D80242A51A3
:101D980001330C682200DA404ED001229A40250017
:101DA80015401442F4D04E6803243440013C012C01
:101DB80095D94C6803222240032A08D0C4685E00E3
:101DC8000322B24094438A68B2402243C2604C68FE
:101DD80003222240022A95D004685E0003221700DD
:101DE800B740BC434F683A40B240224302604C6857
:101DF800C02292021442CBD09A0814001834A400CE
:101E08000E4EA75903241C40E4000F26A640B743F2
:101E1800A026F605B04287D0094EB04208D0094E38
:101E2800B04207D0084EB04200D17BE705267CE7D8
:101E380001267AE7022678E7F0BDC046001802407E
:101E48000004005000080050000C0050002A01D087
:101E5800816170478162FCE7426913000B401B04F3
:101E680091430B4383617047F0B5846CC56C656022
:101E7800046D002C02D0446D856D65600B4F7C6845
:101E8800056C1C262E400125B5402C437C60046857
:101E980063608368102B04D0036899600368DA6074
:101EA800F0BD03689A600368D960F9E70000024052
:101EB80010B50400036C9B08094A944663449B00D0
:101EC80043640368FF20184008381421FEF70CF912
:101ED800044BA3641F2318401E3B8340E36410BDDA
:101EE800008200108008024042683F231340064ADF
:101EF8009A1892000265054A4265013B03221A407E
:101F080001239340836570473F82001040090240D7
:101F180070B5041E4DD00568274BE8181421FEF74C
:101F2800E3F88000206425230222E2542B68234A28
:101F380013402B6021680A68A368E068034320699E
:101F4800034360690343A0690343E0690343206ACC
:101F5800034313430B602000FFF7AAFFA268802306
:101F6800DB019A4218D06168626C3F230B40136012
:101F7800A36CE26C5A606368013B032B0FD9002302
:101F880023656365A3650023E36325220121A1542A
:101F9800013AA354002070BD00236360E3E72000EA
:101FA800FFF7A2FF236D00221A60636DA26D5A60CD
:101FB800E9E70120EFE7C046F8FFFDBF0F80FFFF0C
:101FC80070B504002420205C012845D02420012578
:101FD80025540130205C012806D08023E3635C3B54
:101FE8000022E254012070BD243001352554002020
:101FF800E063256828680126B04328602000FFF7C1
:1020080033FF236B002B1CD0226813680E210B436F
:102018001360626C1368DB0304D5116880235B00CE
:102028000B431360236D002B04D0196880225200E3
:102038000A431A602268136801210B4313600020C9
:10204800D1E72268136804218B4313602268136860
:1020580006310B431360DCE70220C4E770B5314B4F
:10206800196804682568026C1C23134004229A40EE
:10207800114216D06A0714D523689B0603D4236837
:10208800042293432360274C6368026C1C2111408F
:1020980004228A4013436360036B002B00D09847E7
:1020A80070BD02229A4011421CD0AA071AD5236893
:1020B8009B0606D423680A22934323602523093A02
:1020C800C254184C6368026C1C21114002228A40D9
:1020D8001343636024230022C254C36A002BDFD059
:1020E8009847DDE708229A401142D9D02D07D7D565
:1020F80023680E22934323600A4C6268036C1C21F8
:10210800194001231D008D402A436260C3632522C4
:10211800835423330022C254436B002BC0D098470A
:10212800BEE7C0460000024010B5104A13681049C7
:102138000B400343136080239B00984201D000208A
:1021480010BD0C4B1B685800C01840000A49FDF729
:10215800CBFF0130054B5B695B0503D5002803D035
:102168000138F7E70020EBE70320E9E700700040BB
:10217800FFF9FFFF0800002040420F0070B500285B
:1021880011DB8308134DC0339B005C5903221040B8
:10219800C000FC3216008640B44389010A408240E0
:1021A80022435A5170BD0F230340083B9B08063356
:1021B8009B00094A944663445C6803221040C000AF
:1021C800FC3215008540AC4389010A408240224315
:1021D8005A60E7E700E100E000ED00E00138802305
:1021E8005B0498420FD2094A50600948036A1B02EF
:1021F8001B0AC02109060B430362002393600733BF
:102208001360002070470120FCE7C04610E000E0A2
:1022180000ED00E010B5FFF7B1FF10BD002805DBA9
:102228001F22024001239340014A13607047C046B1
:1022380000E100E010B5FFF7D1FF10BD10B50400B4
:10224800114B1978002901D1012010BDFA20800016
:10225800FDF74AFF01000D4B1868FDF745FFFFF732
:10226800E9FF00280DD1032C01D90120EDE7013049
:10227800002221004042FFF7CDFF054B1C600020E3
:10228800E3E70120E1E7C046000000200800002045
:102298000400002010B5084A116880235B000B4336
:1022A80013600320FFF7CAFF041E02D00124200098
:1022B80010BDFEF781FBFAE700200240034B1B78B4
:1022C800034A11685B1813607047C046000000207D
:1022D8007C030020014B18687047C0467C0300202F
:1022E80010B5040083680269134342691343C26945
:1022F800134301680A685B48024013430B60226875
:10230800536859490B40E1680B435360A369226A3B
:102318001A4321688B685548034013438B60226831
:10232800D36A0F218B43616A0B43D3622368504AF7
:10233800934229D04F4A934237D01023E069802234
:10234800120290423BD0042B00D183E06CD8002BC2
:1023580000D178E0022B65D14748626A474B5200AA
:10236800D15AFDF7C1FE61684B08C018FDF7BCFEE5
:102378000200103A424B9A4200D970E023680004E8
:10238800000CD860002055E03E4B5A6D03231340E3
:10239800022B0CD005D8002B0BD0012B0BD103330B
:1023A800CCE7032B09D10533C8E70023C6E702238E
:1023B800C4E70023C2E71023C0E71023BEE7042BBD
:1023C8002DD022D8002B24D0022B1CD12A48626A97
:1023D8002A4B5200D15AFDF787FE400061684B082E
:1023E800C018FDF781FE0200103A254B9A4234D8F6
:1023F80082B20F239A434008083B034013432268E4
:10240800D360002016E0012014E0082BDFD0012063
:1024180010E0FFF78FFB0028D9D100200AE0FFF772
:1024280061FAF8E7012005E0082B02D180200002BC
:1024380093E7012001236A22A352023AA352002300
:102448006367A36710BDFFF775FB002800D084E71A
:102458000020EFE7FFF746FAF7E70120EAE7012057
:10246800E8E7C046F369FFCFFFCFFFFFFFF4FF1196
:1024780000380140004400400024F4002889000886
:10248800EFFF000000100240836ADB0706D50268F0
:1024980053682C490B40C16A0B435360836A9B07FE
:1024A80006D50268536828490B40016B0B435360FB
:1024B800836A5B0706D50268536824490B40416B61
:1024C8000B435360836A1B0706D50268536820498B
:1024D8000B40816B0B435360836ADB0606D50268A9
:1024E80093681C490B40C16B0B439360836A9B063E
:1024F80006D50268936818490B40016C0B4393603A
:10250800836A5B060BD50268536814490B40416C1B
:102518000B435360426C80235B039A420AD0836A60
:102528001B0606D5026853680D490B40C16C0B4366
:1025380053607047026853680A490B40816C0B432B
:102548005360ECE7FFFFFDFFFFFFFEFFFFFFFBFF10
:10255800FF7FFFFFFFEFFFFFFFDFFFFFFFFFEFFF43
:10256800FFFFF7FFFFFF9FFFF8B5CE46474680B550
:1025780006000D0017009946089B98463368DC69E9
:102588002C40641B63425C41BC4257D14346013333
:10259800F4D0FFF79FFE4B46C01A40452ED843465D
:1025A800002B2BD0326813685B07E7D5D3691B056E
:1025B800E4D580231B011362EFF31080012282F31C
:1025C800108831680B68204C23400B6080F310881A
:1025D800EFF3108082F3108831688B6893438B6027
:1025E80080F3108820238732B3500432B35004326A
:1025F800B35064330022F254032020E0EFF310803C
:10260800012282F3108831680B680F4C23400B605D
:1026180080F31088EFF3108082F3108831688B689C
:1026280093438B6080F3108820238732B3500432A1
:10263800B35064330022F254032000E00020C0BCF1
:10264800B946B046F8BDC0465FFEFFFFF0B5C646C6
:1026580000B582B004000D0090461E008823C358C0
:10266800202B5CD100295FD0002A5FD082688023AC
:102678005B019A4204D10369002B01D1CB0757D4DF
:1026880090230022E250083B2132E250FFF722FE5D
:10269800070054234246E2520233E252A2688023E2
:1026A8005B019A4202D00023984613E02369002B6D
:1026B80025D0002398460DE043461B882268DB0599
:1026C800DB0D936202239C46E0445623E25A013A0A
:1026D80092B2E2525623E35A9BB2002B12D00096D4
:1026E8003B00002280212000FFF73EFF002821D177
:1026F800002DE1D02A7823689A620135E5E7A846DB
:102708000025E7E700963B00002240212000FFF764
:102718002BFF002810D188232022E25000E002205D
:1027280002B080BCB846F0BD0120F9E70120F7E708
:102738000120F5E70320F3E70320F1E730B583B084
:10274800040090230022C250FFF7C4FD050023684F
:102758001B681B0710D423681B685B0719D4202348
:102768008822A3500432A3500023E3662367083A63
:10277800A354002003B030BD80210C4B009303000C
:10278800002289032000FFF7EFFE0028E3D0032092
:10279800F0E78021054B00932B000022C90320009D
:1027A800FFF7E2FE0028DAD00320E3E7FFFFFF018E
:1027B80010B5041E30D08823C358002B22D088239C
:1027C8002422E2502268136801218B431360200001
:1027D800FFF786FD012814D0A36A002B18D12268C0
:1027E80053680E490B405360226893682A218B4333
:1027F80093602268136829390B4313602000FFF7A0
:102808009DFF10BD84330022C254FEF76FF8D6E74F
:102818002000FFF739FEE2E70120F2E7FFB7FFFFEC
:10282800F8B50400436E002B05D101336A228352A8
:10283800023A8352F8BD026895686D0E07231D4061
:102848009268520F1340084FF85CC000074EF15CC5
:10285800FDF7D4FC6A23E052785DC000715DFDF796
:10286800CDFC6823E052E5E7488900084089000864
:1028780070B58423C35C012B15D08424012606552A
:10288800882524234351026813681168B1431160F5
:10289800064A13400022426601680B602023435118
:1028A8000255002070BD0220FCE7C046FFFFFFDF95
:1028B800F8B504000A008423C35C012B1BD08425CF
:1028C8000120605588262423A35123681F681968AE
:1028D8008143196020688368DB00D908114381604F
:1028E8002000FFF79DFF23681F602023A3510023CA
:1028F80063550020F8BD0220FCE70000F8B504008D
:102908000B008422825C012A1BD08425012060559B
:1029180088262422A2512268176811688143116011
:102928002268916808480140194391602000FFF728
:1029380077FF23681F602023A351002363550020DD
:10294800F8BD0220FCE7C046FFFFFFF170470068B2
:102958000B68C01A7047000010B50B4B1B78272B6B
:1029680007D80A4A99008850074A01331370002093
:1029780010BD074B05480422282100F09EF8024BA1
:1029880000221A700120F3E72404002084030020A9
:1029980057290008D0B506000C000223002003E0E8
:1029A8009A00925980180133A21E9A42F8D805F06D
:1029B8009DFE06000F00201F05F068FE02000B00B8
:1029C8003000390004F078FB03F0FAFFD0BD0000B6
:1029D80010B50C00FFF7C0FF002807D004482821D5
:1029E800FFF7D8FF034B18602060012010BDC046D8
:1029F80084030020800300200D488546FFF7A6FFCA
:102A08000C480D490D4A002302E0D458C450043341
:102A1800C4188C42F9D30A4A0A4C002301E0136017
:102A28000432A242FBD300F08BFFFDF7FDFDFEE769
:102A38000020002000000020E8010020688D000828
:102A4800E801002078050020FEE730B50024022BBD
:102A580009D0920803590D59013A05510B51043414
:102A6800002AF7DC30BD035D0D5D05550B550134BB
:102A7800131B002BF7DCF5E7F8B50F001600040070
:102A88001D009847310000280DDA3800A8470028B3
:102A980002DA3C002000F8BD31002000A8470028D9
:102AA800F8DA3400F6E73800A8470028F1DC3100EE
:102AB8002000A8470028F4DAECE7F0B599B00090B8
:102AC8000393009B170013430222080001929B07FF
:102AD80004D13B1F1A00531E9A410192002304930C
:102AE8003C00009B4443DB190293009B1B1907938E
:102AF800062828D8029B079A93420CD3049B002BE4
:102B080000D021E119B0F0BD3A0029002000019B56
:102B1800FFF79BFF0FE0029C0EE0E51B2100280059
:102B2800039B984700280ADD019B002BECD1236802
:102B38002A6822602B602C00009BA342EDD3029BE5
:102B4800DB190293D6E746087E43009BE41B9E19D7
:102B58001C19072821D022000593282817D9C50851
:102B68007D4359194A19039B0098FFF785FF3100E7
:102B78007219039B0590701BFFF77EFF0600680023
:102B8800201A2200039B4119FFF776FF020031004B
:102B9800039B0598FFF770FF0600019B002B21D1CE
:102BA800009B32681B6800990A6033600026029D0A
:102BB80005940695A54252D828000099039B98478A
:102BC80000282DDC0CD1019B002B12D1069B2A6812
:102BD8001B6806990A602B60069BDB190693012681
:102BE800ED19E7E73A003100019B0098FFF72DFF48
:102BF800DCE73A002900019B0698FFF726FFEBE780
:102C080000280CD1019B002B1BD1059A2368126860
:102C18002260059A13600126059BDB1B0593E41BC4
:102C2800AC421CD320000099039B98470028E7DAA0
:102C3800019B002B0CD12B6822682A602360E41BBF
:102C4800CDE73A002000019B0599FFF7FEFEE2E779
:102C58003A0021002800019BFFF7F7FEEFE7002E5E
:102C680023D1029B079A934200D347E7029C15E0C1
:102C78003A0029002000019BFFF7E7FE0DE0E51B65
:102C880021002800039B984700280ADD019B002BA0
:102C9800EED123682A6822602B602C00009BA34297
:102CA800EDD3029BDB190293DBE7069B009AEE1A31
:102CB8009A1AB24200DD3200002A04D0019B009823
:102CC800A91AFFF7C2FE059B059A1C1B079B9A1AB7
:102CD800D21BA24200D92200002A05D0079B280057
:102CE800991A019BFFF7B1FE079B02961D1BB44280
:102CF80004D9009B0294009534001D00BC422CD9D5
:102D0800049B072B13D8009908AADB009950029856
:102D18009B1839001E00FDF7E7F9049B706001332A
:102D2800390020000493FDF7DFF90095D8E6390053
:102D38002000FDF7D9F9039B01003A002800FFF7AE
:102D4800BCFE029BBB420CD8049B08AA013B04931F
:102D5800DB009D589B185868E7E7029BBB4200D8E8
:102D6800CCE639000298FDF7BFF9009DDDE7F0B524
:102D78001D0000238BB01400109F149E9D4204DA9E
:102D8800802109066B181D002D23129A1370202329
:102D980032009A430792079B0322462B04D0453BF7
:102DA80059424B41013AFF1809AB049308AB03930E
:102DB800139B0092029322002B00019700F080FEE3
:102DC8000690672E19D1119BDB070ED50300DE197B
:102DD8000022002320002900FDF70CFB002800D06A
:102DE80009963022099BB34227D3069A099B069875
:102DF8009B1A159A13600BB0F0BD472E04D1119B96
:102E0800DB07F2D5069BE2E7069BDE19079B462BFC
:102E1800DED1069B1B78302B0BD10022002320002B
:102E28002900FDF7E7FA002803D10123139ADB1BD9
:102E38001360139B1B68F618CAE7591C09911A708E
:102E4800D0E7F0B52B2305000C0085B002700029EF
:102E580001DA4C4202336B70092C2CDD02ABDE1D0B
:102E680020000A21FDF7B0FA37003031013E20007A
:102E780031700A210194FDF7C1F9019B0400632B0D
:102E8800EEDCBA1EA81C010013003034147002AC2A
:102E980007349C420AD80023A24203D8093302AA65
:102EA8009B18DB1BC018401B05B0F0BD1C78013314
:102EB8000C700131EBE73023E418AB70281DEC707F
:102EC800F1E70000F0B595B00D0009921A9E0A933B
:102ED800089000F0E3FC036818000C93FDF7E8F88D
:102EE800002312932B680D902C7E0B930B990722CD
:102EF8003368C90545D59B1893431A0008323260D8
:102F080001221E685F687B005B080F930E96AE6413
:102F1800EF640E980F99A84B524205F059FB002810
:102F280031D10E980F990122A34B5242FDF772FA44
:102F3800002828D10022002330003900FDF760FA6C
:102F4800002803D02B002D2243331A709B4F472CA7
:102F580000D99B4F03230B9A2B6101339A4300231B
:102F68002A600B930A9B290000930898099B13AACF
:102F780000F0E2F9013000D0A1E00120404215B094
:102F8800F0BD0733B8E732003B003000390005F0E8
:102F98001FFB00280AD0002F03DA2B002D22433311
:102FA8001A70884F472CD5D9874FD3E76B685A1CBE
:102FB8002DD107336B6080230B9ADB00134300226B
:102FC8002B60069212AA059211AA0392232208A93D
:102FD80052180292049401936B6832000093089887
:102FE8003B00FFF7C4FE119A0700672C18D1D31CC9
:102FF80041DB6B689A423EDC1199129B994258DB7F
:103008002B682961DB074FD5013129614CE020226B
:10301800210091434729CED1002BCCD10133C9E7F8
:10302800472C07D1D31C03DB6B6820349342E3DAC7
:10303800452401E0652C20D8280011992200013987
:1030480050301191FFF7FDFE129A0B9013182B6167
:10305800012A02DC2A68D20701D501332B61232318
:1030680008AA9B181B78002B00D17BE72B002D2288
:1030780043331A7076E76524DEE7662CBCD16B68AB
:10308800002A09DD2A61002B02D12968C9070BD55E
:1030980001339B182B6107E0002B03D1012229681B
:1030A800114200D09A1C2A61119BAB6500230B9337
:1030B800D5E701220029ECDC9218521AE9E72A68C0
:1030C800530508D42B693A00099908980A9CA04727
:1030D800013028D151E7652C00D8DAE0A86CE96CFA
:1030E80000220023FDF786F9002833D00123374A50
:1030F800099908980A9CA047013000D13DE7129E23
:10310800119BB34202DB2B68DB070CD50A9C0D9B95
:103118000C9A09990898A0470024013000D12CE79F
:10312800731EA3420ADC2B689B0700D501E1139BA1
:10313800E868984200DB22E7180020E72A0001230C
:10314800099908980A9F1A32B847013000D114E744
:103158000134E5E7119B002B3ADC01231B4A09994E
:1031680008980A9CA047013000D106E7129E119BDF
:10317800334302D12B68DB07D5D50D9B0C9A0999EF
:1031880008980A9CA0470023013000D1F5E60B936C
:10319800119B0B9A5B42934201DC330093E72A00B0
:1031A8000123099908980A9C1A32A047013000D1D6
:1031B800E3E60B9B0133EAE7FFFFEF7FB0890008E6
:1031C800B4890008B8890008BC890008C0890008CB
:1031D800129BAE6D0B939E4200DD1E00002E31DC6B
:1031E800F3430024DB1733400E93AE6D0E9BF31AA6
:1031F800A34230DC119B0B9A9A4238DC2B68DB0720
:1032080035D4119C0B9B0B9A9B1B141B9C4200DD15
:103218001C00002C34DCE3430026DB171C40119B08
:103228000B9AD31A1B1BB34200DC7CE72A0001234C
:10323800099908980A9F1A32B847013000D19CE6CC
:103248000136ECE733003A00099908980A9CA04730
:103258000130C5D191E62A000123099908980A9EF0
:103268001A32B047013000D187E60134BDE70D9B23
:103278000C9A099908980A9CA0470130C1D17CE6AC
:10328800BA192300099908980A9EB0470130C2D19B
:1032980073E6129C012C02DC01231A4236D001236A
:1032A8003A00099908980A9EB047013000D164E6AF
:1032B8000D9B0C9A099908980A9EB047013000D1D5
:1032C8005BE6A86CE96C00220023013CFDF792F84C
:1032D800002819D123007A1C099908980A9CA0474C
:1032E80001300DD149E62A000123099908980A9F5F
:1032F8001A32B847013000D13FE60136A642F2DB68
:103308002A000B9B5032DFE60026F7E73A00E3E796
:103318002A000123099908980A9E1932B0470130FA
:1033280000D12AE60134EB68139A9B1AA342EFDC1A
:10333800FDE60024F7E7C046F7B5160001938A6852
:103348000B690C000090934200DA130022003360EE
:1033580043321278002A01D00133336023689B0678
:1033680002D53368023333602268062315001D40F6
:103378001A4227D0230043331B785A1E93412268F0
:10338800920630D4220001990098089D4332A8473C
:10339800013025D00622236800251340042B05D1CF
:1033A8003368E568ED1AEB43DB171D40A368226913
:1033B800934201DD9B1AED180026B54220D100206A
:1033C80010E00135E36832689B1AAB42D2DD220077
:1033D800012301990098089F1932B8470130F0D1AC
:1033E80001204042FEBD3020E11843310870210021
:1033F8005A1C45310978A218433202331170C1E7CB
:103408002200012301990098089F1A32B847013019
:10341800E6D00136D1E70000F0B58BB006920A007D
:1034280043320793059004920A7E0C00109B782A79
:1034380009D8622A0BD8002A00D1C8E08149039133
:10344800582A00D19CE0250042352A7022E010005D
:1034580063381528F7D8FCF73DFE16001F00F6FF65
:10346800F6FFF6FFF6FF1F00F6FFF6FFF6FFF6FF82
:10347800AD004F008C00F6FFF6FFBE00F6FF4F00D0
:10348800F6FFF6FF900025001A684235111D1960F5
:1034980013682B700123ACE018680968021D0D063B
:1034A8001FD506681A60674A0A2761680392002ECA
:1034B80035DA23002D2043331870A160002916DA6D
:1034C8000A2776420392049D30003900FCF792FEE9
:1034D800039B013D5B5C2B70330006009F42F3D9D0
:1034E8002AE006681A604906DDD536B2DBE7042112
:1034F80023688B432360E3E70868196840C9050619
:1035080002D4400600D5B6B219604E4B0A27039381
:103518006F2A00D1023F2300002243331A706368E8
:10352800A360002BCFDB042122688A432260002E8F
:10353800C9D1049D002BC6D1082F09D12368DB0708
:1035480006D5626823699A4202DC3023013D2B705C
:10355800049B5B1B2361079B210000930598069B36
:1035680009AAFFF7E9FE013048D1012040420BB01B
:10357800F0BD202209680A4322607822324903916B
:10358800210045310A701968226840C9100602D422
:10359800500600D5B6B21960D30702D520231343CD
:1035A8002360002E01D01027B5E72022236893431B
:1035B8002360F8E71A680D68101D496918601368D8
:1035C8002E0601D5196002E06D06FBD5198000238F
:1035D800049D2361BFE71A68111D19601568002151
:1035E8002800626800F0D3F9002801D0401B606011
:1035F800636823610023049A1370ACE72A002369E7
:1036080006990598079DA8470130AED023689B0707
:1036180015D4099BE0689842A9DA1800A7E72200A8
:10362800012306990598079E1932B04701309CD0AE
:103638000135E368099A9B1AAB42F0DCE9E70025FB
:10364800F7E7C046C2890008D3890008002310B5EF
:10365800040003604360836081814366C281036123
:1036680043618361190008225C3000F00FF90B4BAD
:10367800246263620A4BA3620A4BE3620A4B236328
:103688000A4B9C4205D00A4B9C4202D0094B9C42F3
:1036980003D12000583000F077F910BDFD3700083D
:1036A800253800085D3800088938000828040020FB
:1036B80090040020F804002010B5034A0349044888
:1036C80000F06CF810BDC0460C00002069540008DA
:1036D8001C00002041680B4B10B50400994201D032
:1036E80001F0BEFEA168084B994202D0200001F00B
:1036F800B7FEE168054B994202D0200001F0B0FE08
:1037080010BDC0462804002090040020F8040020C2
:1037180010B5094B094A04211A6009480022FFF72D
:1037280095FF012209210748FFF790FF0222122185
:103738000548FFF78BFF10BD60050020C136000863
:103748002804002090040020F804002010B5024846
:1037580000F01BF910BDC0466905002010B50248ED
:1037680000F014F910BDC0466905002010B504002A
:10377800FFF7ECFF236A002B02D0FFF7EFFF10BD25
:10378800044B2362044B1B68002BF6D1FFF7C0FFE4
:10379800F3E7C046DD36000860050020F7B51400E1
:1037A800002600900191A5686768013F04D5246848
:1037B800002CF8D13000FEBDAB89012B08D90E22B0
:1037C800AB5E013304D029000098019B984706435B
:1037D8006835EAE70FB407B5054904AB086804CBB8
:1037E8008168019301F092FC03B008BC04B018474B
:1037F8001800002070B50C000E25495F00F078F81D
:10380800002803DB636D1B18636570BDA389024A3A
:103818001340A381F9E7C046FFEFFFFFF8B51F008B
:103828008B8905000C001600DB0505D50E23C95E43
:103838000022022300F048F8A389054A2800134013
:10384800A38132000E23E15E3B0000F065F8F8BD6D
:10385800FFEFFFFF70B50C000E25495F00F034F84C
:10386800A389421C03D1054A1340A38170BD80225D
:1038780052011343A3816065F8E7C046FFEFFFFFDD
:1038880010B50E23C95E00F00DF810BD03008218B4
:10389800934200D1704719700133F9E70048704727
:1038A80058010020002370B5064D040008002B6065
:1038B80003F03EF8431C03D12B68002B00D0236093
:1038C80070BDC0466405002070B5040008001100F2
:1038D8001A000023054D2B6003F052F8431C03D156
:1038E8002B68002B00D0236070BDC0466405002003
:1038F80070B50400080011001A000023054D2B6064
:1039080003F046F8431C03D12B68002B00D023603A
:1039180070BDC0466405002070B5040008001100A1
:103928001A000023054D2B60FDF722F8431C03D134
:103938002B68002B00D0236070BDC04664050020B2
:1039480070B500260C4C0D4D641BA410A64209D17D
:10395800002604F0CBFF0A4C0A4D641BA410A642B3
:1039680005D170BDB300EB5898470136EEE7B300B8
:10397800EB5898470136F2E7608D0008608D000823
:10398800648D0008608D0008704770477047C9B2A1
:103998008218904201D10020704703788B42FBD0F7
:1039A8000130F6E7F0B502690F6987B006000B0031
:1039B80000200291BA426DDB013FBC00143305932D
:1039C8001B190393330014331C19019323680493C0
:1039D800039B04981D6801352900FCF785FB049BAF
:1039E8000090AB422BD3059B019D9C460023059379
:1039F8000493624608CA28689446009A99B25143CB
:103A0800059A1B0C8918009A53430A0C9B181A0C28
:103A180089B2059282B2521A0499000C52189BB2CC
:103A28001114C31A5B18191492B21B041A43039B8E
:103A3800049104C56345DCD22368002B30D03000E4
:103A4800029901F025FA002823DB340000250299A9
:103A580014341431236801C902936B461B8982B25E
:103A68009A1A029B5219000C1B0C1B1A10141B18D3
:103A78001D1492B21B041A43039B04C48B42E9D25F
:103A8800019ABB00D3181A68002A13D0009B01338F
:103A98000093009807B0F0BD2368002B04D1013FC4
:103AA800019B043CA342F7D33761C8E71A68002A90
:103AB80004D1013F019A043B9A42F7D33761E5E705
:103AC800F0B514001D00C6699BB006940795239FA6
:103AD8000390002E0FD1102000F092FE039B021ECF
:103AE800D86104D1EF21C74BC74801F0A1FD46605A
:103AF80086600660C660039BDB69196800290BD0E5
:103B08005A68012393404A608B60039800F072FF63
:103B18000022039BDB691A60002D1EDA01233B603B
:103B28006B005B080793079EB84BB84A3340934233
:103B380016D1B74B229A136033031B0B234301D1D1
:103B480000F004FEB34B249A0593002A02D0B24B2E
:103B5800249A136005981BB0F0BD00233B60E2E790
:103B6800069A079B0E920F930E980F990022002336
:103B7800FCF740FC071E0BD00123229A1360249BFC
:103B8800002B02D0A54B249A1360A54B0593E1E7BF
:103B980018AB019319AB009303980E9A0F9B01F091
:103BA8002DFA72000490520D00D17BE00F9B1797FD
:103BB80019039C4B090B0B439B4956180E980F99F8
:103BC80019000022994B04F081F9994A994B03F0A6
:103BD800B9FE994A994B02F011FF040030000D001C
:103BE80004F054FD964A974B03F0ACFE02000B001C
:103BF8002000290002F002FF04000D0004F00AFD75
:103C080000220290002320002900FCF7F9FB00287D
:103C18000BD0029804F03AFD2B002200FCF7EAFBD7
:103C280043425841029B1B1A029301231693029B9D
:103C3800162B10D80E980F99029A834BD2009B1816
:103C48001A685B68FCF7DCFB002847D0029B013B45
:103C58000293002316930022189B08929B1B5A1E5E
:103C68003ED50122D31A089300230D93029B002B03
:103C780038DB029A0D9B944663440D9300231392FC
:103C88000B93209B0124092B67D8052B02DD002408
:103C9800043B2093209B981E032867D8FCF710FA52
:103CA8002B3A385B199B189FFF18684BFA18202A83
:103CB8000FDD40239B1A9E40654B3000FB18DC400B
:103CC800204304F013FD0122624B7E1ECB1817928D
:103CD80076E7202320009B1A9840F2E71690BAE76F
:103CE8000D92C3E7089B029A9B1A089353420B93C1
:103CF80000231393C5E700231193219B10930A9384
:103D0800002B13DC01231A0010930A9321920DE073
:103D18000123F1E70023219A11939446029B6344FF
:103D2800109301330A93002B00DC0123039A00212E
:103D3800D0690422150014359D421BD941600398AF
:103D480000F014FE0590002817D1B021424B2E48F0
:103D5800059AFF31C9E60123DDE70023119420937A
:103D6800013B10930A9300221333CFE701231193E9
:103D7800023BF6E701315200DCE7039B059ADB6959
:103D88001A600A9B0E2B00D9A0E0002C00D19DE000
:103D9800029B002B64DD0F21029A2B4B0A40D200B4
:103DA8009B181E685F68029B02241D11DB050AD55B
:103DB8002A4B0D401A6A5B6A0E980F9903F07CF93A
:103DC800069007910134254B0C93002D08D10698D5
:103DD800079932003B0003F06FF9069007915AE00B
:103DE80001231D4209D0E4180C9B30001A685B6857
:103DF800390003F0A7FD06000F000C9B6D10083377
:103E0800E2E7C046F1890008088A00080000F07F50
:103E18000F270000ED890008F0890008C189000813
:103E2800C08900080000F03F01FCFFFF0000F83FD8
:103E380061436F63A787D23FB3C8608B288AC63FA8
:103E4800FB799F501344D33F008B000832040000D5
:103E580012040000000010FE618A0008D88A0008D9
:103E6800029B0224002B16D00E980F990F225D4258
:103E78002A40B14BD2009B181A685B6803F062FDB8
:103E88000127002306900791AC4E2D11002D00D07C
:103E9800EBE0002BA1D1069E079F169B002B00D1BB
:103EA80045E1002230003900A54BFCF7A9FA0028AB
:103EB80000D13CE10A9B002B00D138E1109B002B7C
:103EC80000DDDDE00E9B0F9C06930794199B002BE9
:103ED80003DB029A0E2A00DC5AE2119A002A00D06B
:103EE80084E200270B9D089C002C0ED00D9B002B14
:103EF8000BDD0D9A2300944200DD1300089AE41AA2
:103F0800D21A08920D9AD31A0D930B9B002B21D02D
:103F1800119B002B00D1BEE2049E002D14D0390065
:103F28002A00039800F0ECFE049A010007000398A9
:103F380000F034FE06000499039800F05BFD0B9B2B
:103F480004965B1B0B9305D031000B9A039800F085
:103F5800D7FE04900121039800F008FE139B0B90F4
:103F6800002B00D1A6E21A000100039800F0C8FE59
:103F7800209B00250B90012B03DC069BAB4200D154
:103F8800A1E20B9B0B9A1B6903339B00D31858685B
:103F980000F098FD20231395181A0D9BC0180200F5
:103FA8001F231A40184200D1A9E201339B1A042B9F
:103FB80000DC9FE21C239B1A089AE418D218089286
:103FC8000D9AD3180D93089B002B05DD1A00049950
:103FD800039800F0F1FE04900D9B002B05DD1A00FC
:103FE8000B99039800F0E8FE0B90169B002B00D16C
:103FF8008EE20B99049800F04BFF002800DB87E263
:10400800029B0A22013B0C9304990023039800F0B9
:1040180015FD119B0490002B00D172E2002339009A
:104028000A22039800F00AFD109B0700002B03DC0E
:10403800209B022B00DD75E2002C05DD39002200F3
:10404800039800F0B9FE0700139B3800002B00D13D
:10405800B1E27968039800F089FC041E00D09DE263
:104068002200384B384839493FE53D4205D032688F
:10407800736803F067FC3B0001346D10083605E7F0
:10408800029B0022013B0C933000314B390003F0B6
:1040980059FC06900791109B01342000129304F0FC
:1040A800F5FA069A079B03F04DFC2A4B002202F012
:1040B800A5FC294B0600CF18129B002B50D106985F
:1040C80007990022254B03F001FF32003B00040052
:1040D8000D00FCF7A9F9002800D03DE2802109066F
:1040E8007B18320020002900FCF78AF9002800D14B
:1040F800E8E600231F000B93219B059DDB430C93EF
:10410800002302930B99039800F074FC002F00D150
:10411800CBE0029B002B05D0BB4203D019000398CB
:1041280000F068FC3900039800F064FCBDE0029BD5
:104138000C930A9BB1E7C046008B0008D88A000898
:104148000000F03F618A0008088A0008EF020000BA
:104158000000244000001C400000C0FC0000144087
:10416800129ACE4B013AD2009B1818685968119BD5
:10417800002B52D002000B000020C94902F09CFF1E
:1041880032003B0003F0A2FE059A060094460F0099
:10419800059B1493129B634412930698079904F0A5
:1041A80039FA040004F072FA02000B000698079925
:1041B80003F08CFE149B30340690079102005D1CBE
:1041C8001C7030000B003900FCF72EF900286CD168
:1041D800069A079B0020B34903F078FE02000B0003
:1041E80030003900FCF720F9002800D016E1129BB6
:1041F800AB4200D1F0E0002230003900AA4B03F0B6
:10420800A1FB002206000F0006980799A64B03F0B1
:1042180099FB149506900791BFE732003B0003F025
:1042280091FB059D129A2B009446149015916344B6
:1042380017930698079904F0EDF9040004F026FA9C
:104248000B0002000698079903F040FE3034179BD4
:104258002C70013506000F00AB4229D1149815992E
:10426800059B129D9C4600228D4B654402F0C6FBBF
:1042780002000B0030003900FCF7D6F8002800D007
:10428800CCE0149A159B0020854903F01FFE02001C
:104298000B0030003900FCF7B3F800280FD02B00D2
:1042A800013D2A78302AFAD01D000C9B02935DE06C
:1042B80000227D4B03F046FB06900791B9E70E9B61
:1042C8000F9C06930794199B002B00DA09E6029BC2
:1042D8000E2B00DD05E6029A704BD2009B185C6835
:1042E8001B6808930994219B002B02DA0A9B002B78
:1042F80060D0069E079F0A9B059C013B1B190A93E9
:10430800089A099B3000390002F0D6FE04F082F9C1
:10431800069004F0BBF9089A099B03F013FB02000E
:104328000B003000390003F0D1FD2300069A013458
:1043380030321A700A9A25009A4200D081E00200B1
:104348000B0002F05BFB089A099B06000F00FCF7C4
:104358006BF8002860D1089A099B30003900FCF7F7
:1043680049F8002802D0069BDC0755D40499039825
:1043780000F040FB00232B70029B229A013313604C
:10438800249B002B01D1FFF7E5FB1D60FFF7E2FB43
:10439800029A424BD2009B185C681B6808930994E8
:1043A800219B002BA5DA0A9B002BA2DC0A9B002B81
:1043B80000D09EE60898099900223C4B03F0C2FA07
:1043C800069A079BFCF73AF8002800D091E6029B72
:1043D80007000C930B90B6E00E9B0F9C0693079476
:1043E800199B002B02DB029A0E2AD1DD209A012AA2
:1043F80039DC179A002A32D02D4A9B180B9D089C4D
:10440800089A0121D21808920D9A0398D3180D938F
:1044180000F0ACFB070067E5029B0C932B001D0026
:10442800013B1A78392A08D1059A9A42F7D10C9A91
:10443800059901320C9230220A701A7801321A70EA
:1044480033E70022184B03F07DFA00220023060010
:104458000F00FBF7CFFF002800D151E786E736238E
:10446800189A9B1ACAE70A9B5D1E0B9BAB4208DB96
:104478005D1B0A9B002BC2DA089B0A9A9C1A002330
:10448800BEE70B9B139AEB1AD31813930B95089C52
:1044980000250A9BB4E70B9A049957E5008B00089E
:1044A8000000E03F0000F03F0000244000001440FE
:1044B800330400000120209B834200DD6DE5069B4C
:1044C800002B00D069E50025079B1B03AB420AD1EE
:1044D800A34B079A134206D0089B01350133089372
:1044E8000D9B01330D93139B002B00D049E5012050
:1044F800139552E5042B00D165E51C335CE51300E8
:10450800FBE7109B002B33DC209B022B0ADC2FE0FF
:104518000A9B002B24DC209B022B21DD029B0C93A1
:104528000A9B1093109B002B00D0E5E50B99052200
:10453800039800F083FA01000B90049800F0A8FC9F
:10454800002800DCD8E5059B059A5D1C3123137013
:104558000C9B01330C93D3E5129B1F000B93F2E7DE
:10456800029B0C930A9B1093119B002B00D063E5D0
:1045780000250B990498FFF715FA059B303058551C
:10458800109B01350400AB4200DCB8E000230A228E
:104598000499039800F052FA0490EAE739003A695E
:1045A8000C31023292000C3001F038F8012221005F
:1045B800039800F001FC02970700059B109A0A93E4
:1045C800013B9B1810930B990498FFF7EBF902999C
:1045D80004000890049800F05BFC0B9905003A0071
:1045E800039800F071FCC368060001003034002B0A
:1045F80015D0039800F0FEF9002D2DDA0499012258
:10460800039800F0D9FB0B99049000F041FC0028B6
:1046180002DC1DD1E3071BD5392C14D125E0049801
:1046280000F036FC31000D90039800F0E3F9209B70
:104638000D9A134326D1069A0133134206D1392C19
:1046480013D0002D04DD089C313401E0002D29DA57
:104658000A9B5D1C1C7055E5209B1D4303D101235B
:10466800069A1342CAD0392C37D10A9B0A9A5E1C83
:10467800392313703500013E3378392B5CD0013370
:1046880033703FE5002D06DB209B1D4307D1012336
:10469800069A134203D10D9B002BAFDCD8E70D9B84
:1046A800002BE0DC0A9B0A9A5E1C1C70109B93424C
:1046B8002ED000230A220499039800F0BFF9029B28
:1046C8000490BB420DD100230A220299039800F0FE
:1046D800B5F9029007000A9675E70A9B01345D1C3C
:1046E800B8E7029900230A22039800F0A7F90023EB
:1046F80002900A223900039800F0A0F9EAE7109B1B
:104708000126002B00DD1E00059B9E190023029345
:1047180004990122039800F04FFB0B99049000F0D4
:10472800B7FB0028A6DC01D1E407A3D43500013E7D
:104738003378302BFAD0E5E4059BB3429AD10C9B31
:10474800059A01330C9331231370DBE4054B249A4B
:104758000593054B002A01D0FFF7FAF9FFF7FAF99C
:104768000000F07FE4890008EC89000870B50500B6
:104778000C1E10D0043C2368002B00DAE418280033
:1047880000F0E4F81D4A1368002B05D1636014603B
:10479800280000F0E3F870BDA34208D9206821186A
:1047A8008B42F3D119685B6809182160EEE71A009B
:1047B8005B68002B01D0A342F9D911685018A042B8
:1047C8000BD120680918501811608342E0D118688D
:1047D8005B68411811605360DAE7A04202D90C23E4
:1047E8002B60D5E7206821188B4203D119685B68D4
:1047F8000918216063605460CAE7C046700500204C
:1048080010B5034B0100186800F026F810BDC0462B
:104818001800002070B50F4E0D0031680400002903
:1048280002D100F0E9FE30602900200000F0E4FE2B
:10483800431C03D101256D42280070BD0323C51C0C
:104848009D43A842F8D0291A200000F0D5FE013077
:10485800F2D1EFE76C0500200323F7B5CD1C9D438B
:10486800083506000C2D34D20C25A94233D8300067
:1048780000F06CF8344F3B681C00002C2FD1290045
:104888003000FFF7C7FF0400431C58D13C682100E3
:10489800002949D1002C4CD023683000E31801933B
:1048A80000F0AAFE019B834243D123683000ED1A31
:1048B8002900FFF7AFFF01303BD023685B19236065
:1048C8003B68002B3DD05A68A24230D100225A6082
:1048D80012E0002DC9DA0C2333600020FEBD2168E8
:1048E800491B1ED40B2917D962192560A34211D17F
:1048F8003A60636811605360300000F02FF82000C0
:1049080007220B30231D9043C21A9842E6D01B1A87
:10491800A350E3E75A60ECE76268A342D7D13A6054
:10492800EAE723006468A8E70C004968B0E71300C9
:10493800C7E70C233000336000F010F8CDE70560BE
:10494800DAE75B60FFDEC0467005002010B502485C
:10495800FFF71BF810BDC0466805002010B50248D7
:10496800FFF714F810BDC0466805002070B5C5698A
:1049780006000C00002D0ED11020FFF741FF021E8B
:10498800F06104D16B21194B194800F051FE4560C4
:1049980085600560C560F569EB68002B13D0F36985
:1049A800A200DB689B181868002818D101210D00A7
:1049B800A5406A1D3000920000F058FE00280CD077
:1049C800446085600DE021220421300000F04EFE95
:1049D800F369E860DB68002BE1D1002070BD026854
:1049E8001A6000230361C360F8E7C046F189000834
:1049F800728A000870B5C66905000C00002E0ED139
:104A08001020FFF7FDFE021EE86104D18F21094B3B
:104A1800094800F00DFE466086600660C660002CFE
:104A280007D0EB696268DB6892009B181A682260FD
:104A38001C6070BDF1890008728A0008F7B50F0084
:104A480001900C001E0000200D6914373B680130EE
:104A580099B251431B0C534389190E0C9B191E0C18
:104A680089B21B045B1808C78542EFDC002E22D0F0
:104A7800A368AB4219DC616801980131FFF776FF42
:104A8800071E05D13A00BA210C4B0D4800F0D0FDA5
:104A9800210022690C31023292000C3000F0BEFD78
:104AA80021000198FFF7A6FF3C002B1D9B00E3188F
:104AB80001355E6025612000FEBDC046618A0008A0
:104AC800728A00088022030052020020934201D219
:104AD8001B04103080225204934201D208301B027A
:104AE80080225205934201D204301B018022D20554
:104AF800934203D3DB43DB0FC018704799009B0038
:104B080001D50230F9E703301142F6D12020F4E74D
:104B18000368010007221800104013420DD0063A1E
:104B28000020134205D10230034203D0D3401000C5
:104B38000B6070479B080B60FBE79AB2002A01D113
:104B480010201B0CDAB2002A01D108301B0A1A0700
:104B580001D104301B099A0701D102309B08DA07FA
:104B6800E9D401305B08E6D12020E2E710B50C005B
:104B78000121FFF7FBFE002807D14621054C020062
:104B8800054B2000FF3100F053FD01234461036110
:104B980010BDC046728A0008618A0008F0B514008A
:104BA8000A6923690D008BB09A4202DB23000C00CE
:104BB8001D0027692E696168BB190393A368BA1998
:104BC800934200DA0131FFF7D1FE0290002806D1A6
:104BD800B121494B4948029A490000F029FD029B3E
:104BE800002214339C46BB199B006344049363461C
:104BF80004998B422AD32300BF0014331435089339
:104C0800B600DB190593AB19099304230693230017
:104C1800059A153301959A4205D3131B153B9B083A
:104C280001339B000693019B099A934210D3039B7F
:104C3800002B05DD049B043B04931B68002B56D016
:104C4800029B039A18001A610BB0F0BD04C3CFE7AA
:104C5800019B186880B200281ED067460025089E70
:104C680002CE3B6807938BB243431A006B46090C8C
:104C78009B8B4143D318079A5B19120C89181A0C9D
:104C88008A189BB2150C12041A43059B04C7B34239
:104C9800E6D86346069A9D50019B1868000C20D000
:104CA80063462500614600271B6814352A680E688C
:104CB80092B24243360C9219D21916049BB21E4383
:104CC8000E6040CD4B68360C46439BB2120CF3186D
:104CD8009B18059A1F0C0431AA42E7D86246069928
:104CE8005350019B0433019304239C449BE7039B8B
:104CF800013B03939BE7C046618A0008728A00085B
:104D0800F7B50323150007000E001A401D4208D00E
:104D18002549013A9200525800233100FFF78EFED0
:104D28000600AD103DD0FC69002C0FD11020FFF714
:104D380067FD021EF86105D1B4211C4B1C48FF31E8
:104D480000F076FC446084600460C460FB699C6881
:104D58000193002C08D138001649FFF707FF019B83
:104D6800040098600023036001231D420AD031002B
:104D780022003800FFF712FF310001903800FFF7DA
:104D880039FE019E6D100CD02068002807D1220042
:104D980021003800FFF702FF0023206003600400B1
:104DA800E2E73000FEBDC046CC8A0008F189000861
:104DB800728A000871020000F0B50C001600236921
:104DC800571185B0FB180193013300934968A36814
:104DD8000290009A934210DB0298FFF7C7FD002368
:104DE800010005001A00143198420CD1EF212A0065
:104DF800254B2648490000F01BFC01315B00E8E721
:104E080098000A500133BB42FADBFB43DB171F4013
:104E1800BF0023001F20C9193700226914339200EC
:104E28009A180740064229D00130C01B03908C46CF
:104E380000201E68BE400643604640C08446039E6C
:104E480001CBF0409A42F4D8260015360423B2422A
:104E580004D3131B153B9B0801339B00C850002843
:104E680002D0019B02330093009B0298013B210072
:104E78002B61FFF7BFFD280005B0F0BD01CB01C1D4
:104E88009A42FBD8F0E7C046618A0008728A000897
:104E980030B50B6904690200E01A9C420FD1143244
:104EA8009B0014311400C918D218043A0439156843
:104EB8000B689D4204D001209D4200D2023830BDCB
:104EC8009442F2D3FBE70000F0B50C0087B00090E5
:104ED800110020001700FFF7DBFF051E10D10100AD
:104EE8000098FFF743FD021E04D1404B404841495A
:104EF80000F09EFB012345610361100007B0F0BD7F
:104F08000026B04203DA23003C001F000136616826
:104F18000098FFF72BFD021E03D1344B3448364965
:104F2800E6E72369143400939B00E31821000194F9
:104F38003C0002933B6914349B00E318039303007D
:104F4800C6608C460020143304930593634620CB37
:104F5800A9B20E009C4608CC2D0C99B2711A0918FA
:104F68001B0C0814EB1A1B18181489B21B041943DC
:104F7800059B02C30593039BA342E7D83900039C12
:104F8800153104238C4204D3E31B153B9B080133E2
:104F98009B000199CD1804992E00CB181F00029987
:104FA8008E4211D3029CE91E00208C4204D32100BA
:104FB8000331491B890888001B18043B196800291C
:104FC80010D0009B136198E7844602CE88B26044F3
:104FD80000140C0C04196144201489B224042143E0
:104FE80002C7DCE7009901390091E6E7618A000809
:104FF800728A00083702000045020000F7B5012157
:1050080016001F00FFF7B2FC041E05D12200254B35
:105018002548264900F00CFB3B037D001B0B6D0D5A
:1050280002D08022520313430193002E25D06846F4
:105038000096FFF76DFD019B009900281BD02022E8
:105048001E00121A96403200C3400A43626101935F
:10505800019EA661731E9E4101362661002D14D063
:105068003526134BED18089B2D181D60099B361A21
:105078001E602000FEBD6161EAE701A8FFF748FD58
:10508800019B012663612030E7E70A4BC018089BA3
:105098001860094BF3189B00E3185869FFF712FDD5
:1050A8007601E3E7618A0008728A00080F030000AE
:1050B800CDFBFFFFCEFBFFFFFFFFFF3F936810B55F
:1050C800013B9360002B04DA9469A34207DB0A29A9
:1050D80005D01368581C10601970080010BD00F046
:1050E800EAF90100F9E7F8B506000F001400D51831
:1050F800AC4201D1002007E021783A003000FFF7E8
:10510800DDFF0134431CF3D1F8BD0000F0B5A1B0B8
:105118000F0015001E000390002804D0036A002B1E
:1051280001D1FEF723FB7B6EDB0705D4BB899B050A
:1051380002D4B86DFEF729FCBB891B0702D53B6971
:10514800002B13D13900039800F0F8F900280DD08E
:105158007B6EDB0703D50120404221B0F0BDBB893F
:105168009B05F8D4B86DFEF711FCF4E7002308ACF2
:105178006361203363761033A37607962E00337865
:10518800002B01D0252B48D1731B0593AE420BD0C1
:105198002A0039000398FFF7A6FF013000D1AEE0DE
:1051A8006369059A9B1863613378002B00D1A6E0E8
:1051B800012200235242626004A954325218751C1D
:1051C8002360E360A3601370A365594B05221800A0
:1051D80029780593FEF7DBFB6E1C00281FD1226897
:1051E800D30604D5532304A95B182021197013078B
:1051F80004D5532304A95B182B2119702B782A2B6B
:1052080016D02E0000210A20E3683278751C303A47
:10521800092A50D9002911D117E00136AFE7059BBB
:105228002268C01A01238340134335002360CCE76A
:10523800079B191D1B680791002B01DB0B9304E0EA
:105248005B42E36002231343236033782E2B0CD197
:1052580073782A2B34D1079B02361A1D1B680792D4
:10526800002B01DA01235B420993324D0322280007
:105278003178FEF78CFB002806D04023401B834082
:105288002268013613432360317806222A48751CA8
:105298002176FEF77CFB002840D0284B002B22D13A
:1052A8000722079B07339343083307936369049ADC
:1052B8009B18636162E743432E0001219B18A4E712
:1052C80000230A201900013663603278751C303AD1
:1052D800092A03D9002BC8D00991C6E741432E00FB
:1052E80001238918F1E707AA009221003A00144B1C
:1052F8000398FDF7E7FD0490049B0133D6D17B6E3C
:10530800DB0705D4BB899B0502D4B86DFEF73EFBCD
:10531800BB895B0600D51EE70D981EE707AA009219
:1053280021003A00064B0398FEF776F8E3E7C046FB
:10533800C88B0008CE8B0008D28B0008CD2E000841
:10534800EF500008F7B50C228B5E05000C001A0719
:1053580061D44A68002A02DC0A6C002A42DDE76A46
:10536800002F3FD0002280202E682A601A004001BA
:10537800216A0240034227D0626DA3895B0706D5E4
:105388006368D21A636B002B01D0236CD21A0023F6
:105398002800E76A216AB847431C25D000236360C8
:1053A80023692360A389DB0400D56065616B2E60E7
:1053B800002917D023004433994202D02800FFF770
:1053C800D5F9002363630DE001232800B8470200E4
:1053D800431CD2D12B68002BCFD01D2B01D0162B0C
:1053E80031D12E60002035E02B680C21625E002B45
:1053F80008D01D2B01D0162B0AD100236360236926
:105408002360D3E7636023692360D204CDD4CDE75A
:10541800402313431BE00E69002EE3D00F680E6093
:10542800BA1B019200229B0700D14A69A260019B26
:10543800002BD7DDA36A32001F002800019B216AD8
:10544800B847002807DC4023A28913431BB2012078
:10545800A3814042FEBD019B36181B1A0193E6E763
:105468000B6970B505000C00002B02D1002528003F
:1054780070BD002804D0036A002B01D1FEF776F92D
:105488000C22A35E002BF1D0626ED20704D49B05D8
:1054980002D4A06DFEF779FA28002100FFF752FF29
:1054A800636E0500DB07E2D4A3899B05DFD4A06DFA
:1054B800FEF76CFADBE7F8B506000D0014000028CB
:1054C80004D0036A002B01D1FEF750F9A369A36049
:1054D800A3891B0702D52369002B09D121003000BD
:1054E80000F02CF8002803D001256D422800F8BDF3
:1054F80023692068EFB2C01A6369EDB2834205DC04
:1055080021003000FFF7ACFF0028EDD1A36801307F
:10551800013BA36023685A1C22601F7063698342A1
:1055280004D0A389DB07E1D50A2DDFD121003000A3
:10553800FFF796FF0028D9D0D6E700002D4B70B5AD
:10554800050018680C00002804D0036A002B01D15C
:10555800FEF70CF90C23E25E130723D4D30607D415
:1055680009232B60402301201343A38140423AE0E2
:10557800520713D5616B002908D0230044339942A0
:1055880002D02800FFF7F2F8002363632422A389DE
:105598009343A38100236360236923600823A289BE
:1055A8001343A3812369002B0BD1A0218022A38957
:1055B800890092000B40934203D02100280000F09C
:1055C800DBF80C23E25E012113000B400A420BD0EA
:1055D8000023A36063695B42A361002023698342BF
:1055E80001D11306BED470BD910700D46369A360CE
:1055F800F3E7C04618000020002370B5064D0400EC
:1056080008002B6001F0CCF9431C03D12B68002B58
:1056180000D0236070BDC04664050020002310B58B
:105628009A4200D110BDCC5CC4540133F8E70000A5
:105638007FB514001A00094B05001B680E00D868D6
:10564800074B002C01D1074B1C000749019302941A
:105658002B00009600F056F800F0F4F8180000202F
:10566800E38B00081E8C0008F08B000870B50B0C4B
:10567800150C002B1ED1002D0CD189B294B24C43CD
:105688002100FFF7E9F8051E1AD022000021FEF7D5
:10569800FDF816E02B1C0C1C89B292B24A439BB24F
:1056A800A1B25943140C0C19230C07D1240492B24B
:1056B8001443E5E7002D01D1141CEDE70C2303602A
:1056C8000025280070BD82B0002900D101A9101E54
:1056D80006D0002B06D013780B601078431E984133
:1056E80002B0704702204042FAE70300081E05D0C6
:1056F800FF2A04D98A2201201A60404270470120FB
:105708000A70FBE70EB417B5054C05AB04CB0100D6
:1057180020680193FFF7FAFC1EBC08BC03B01847C9
:105728001800002070B50E001D000E23C95E14007D
:1057380096B000290CDAB2898023110019401A4268
:1057480014D18023DB0000202960236016B070BDCF
:105758006A4600F053F80028EDDBF02301991B029C
:105768001940044BC9184B425941EAE7002140232C
:10577800E9E7C04600E0FFFFF0B502268B89050087
:105788000C0085B0334207D02300473323602361E0
:105798000123636105B0F0BD03AB02AAFFF7C2FFA6
:1057A800029F019039002800FFF756F8002808D119
:1057B8000C22A35E9A05EDD4032293431E43A681CF
:1057C800E2E78023A28920601343A381039B206121
:1057D8006761002B0CD028000E23E15E00F020F852
:1057E800002805D00323A2899A43023B1343A381CF
:1057F800A389019A1343A381CCE70000002370B565
:10580800064D0400080011002B6001F099F8431CB4
:1058180003D12B68002B00D0236070BD64050020E5
:10582800002370B5064D040008002B6001F098F8BD
:10583800431C03D12B68002B00D0236070BDC046E9
:1058480064050020062010B500F02CF8012001F0B6
:10585800B5F870B504000D001F2904D9162303609C
:105868000120404270BDC36B002B04D08A009B18F6
:105878001A68002A08D1200000F030F82A00010038
:10588800200000F019F8EDE7012A09D0511C03D1D6
:10589800162303600120E5E70021280019609047DE
:1058A8000020DFE710B5034B01001868FFF7D1FFB0
:1058B80010BDC04618000020002370B5064D040036
:1058C800080011002B6001F053F8431C03D12B682A
:1058D800002B00D0236070BD6405002010B501F0D6
:1058E80037F810BDF0B583B014001D0006000F0096
:1058F80000F076F82200009001912B00200029008A
:1059080002F066FE002813D100220023300039007F
:10591800FAF770FD00281ED000220023200029007D
:10592800FAF768FD002807D00023274C009301945C
:105938000098019903B0F0BD2000290000F046F856
:105948000028F5D00022002320002900FAF758FD8E
:105958000028EDD02EE00098019900F037F80028D3
:1059680014D00098019900220023FAF743FD00287B
:10597800DED03000390000F029F80028D8D0200007
:10598800290000F023F80028D2D013E030003900B5
:1059980000F01CF80028E4D02000290000F016F8D8
:1059A8000028DED00098019902000B0002F010FEDA
:1059B800002804D102F094FF22230360B8E702F024
:1059C8008FFF21230360B3E70000F03F034B48003B
:1059D8009C4640086044C00F7047C04600001080D5
:1059E800F0B545464E46DE465746E0B55E007608B9
:1059F8001D009846330093B01400009001911343A2
:105A08001CD10F0080210200380009034840030020
:105A180092185B4137498B422BD900980199220093
:105A28002B0000F0EBFF029003910298039913B04A
:105A3800F0BCBB46B246A946A046F0BD2E4B009826
:105A480001994F008A4681467F089F4218D90099DC
:105A5800019A2A481300844663440B43DDD1802110
:105A6800090369400B00220092185B4121498B42CF
:105A7800D3D88B4226D00023214C02930394D4E739
:105A88009F4222D09E42E2D8BB4600D1ACE35346A7
:105A9800002B39DB002A00D0B2E3194B9E4201D01B
:105AA80000F0E5FB0099019A434602910392002B0E
:105AB800BBDA130000200A00114901F0FDFA029038
:105AC8000391B2E7002AD6D0A7E70028A5D1BE42A5
